:020000040000fa
:080000000002040000000000f2
:020000040000fa
:0400080036030000bb
:020000040000fa
:04000c0048030000a5
:020000040000fa
:040010005803000091
:020000040000fa
:040014003e030000a7
:020000040000fa
:040018005003000091
:020000040000fa
:04001c00b00300002d
:020000040000fa
:040020006003000079
:020000040000fa
:04002400b003000025
:020000040000fa
:04002800b003000021
:020000040000fa
:04002c00b00300001d
:020000040000fa
:04003000b003000019
:020000040000fa
:04003400b003000015
:020000040000fa
:04003800b003000011
:020000040000fa
:04003c00b00300000d
:020000040000fa
:04004000b003000009
:020000040000fa
:04004400b003000005
:020000040000fa
:04004800b003000001
:020000040000fa
:04004c00b0030000fd
:020000040000fa
:04005000b0030000f9
:020000040000fa
:04005400b0030000f5
:020000040000fa
:04005800b0030000f1
:020000040000fa
:04005c00b0030000ed
:020000040000fa
:04006000b0030000e9
:020000040000fa
:04006400b0030000e5
:020000040000fa
:04006800b0030000e1
:020000040000fa
:04006c00b0030000dd
:020000040000fa
:04007000b0030000d9
:020000040000fa
:04007400b0030000d5
:020000040000fa
:04007800b0030000d1
:020000040000fa
:04007c00b0030000cd
:020000040000fa
:04008000b0030000c9
:020000040000fa
:04008400b0030000c5
:020000040000fa
:04008800b0030000c1
:020000040000fa
:04008c00b0030000bd
:020000040000fa
:04009000b0030000b9
:020000040000fa
:04009400b0030000b5
:020000040000fa
:04009800b0030000b1
:020000040000fa
:04009c00b0030000ad
:020000040000fa
:0400a000b0030000a9
:020000040000fa
:0400a400b0030000a5
:020000040000fa
:0400a800b0030000a1
:020000040000fa
:0400ac00b00300009d
:020000040000fa
:0400b000b003000099
:020000040000fa
:0400b400b003000095
:020000040000fa
:0400b800b003000091
:020000040000fa
:0400bc00b00300008d
:020000040000fa
:0400c000b003000089
:020000040000fa
:0400c400b003000085
:020000040000fa
:0400c800b003000081
:020000040000fa
:0400cc00b00300007d
:020000040000fa
:0400d000b003000079
:020000040000fa
:0400d400b003000075
:020000040000fa
:0400d800b003000071
:020000040000fa
:0400dc00b00300006d
:020000040000fa
:0400e000b003000069
:020000040000fa
:0400e400b003000065
:020000040000fa
:0400e800b003000061
:020000040000fa
:0400ec00b00300005d
:020000040000fa
:0400f000b003000059
:020000040000fa
:0400f400b003000055
:020000040000fa
:0400f800b003000051
:020000040000fa
:0400fc00b00300004d
:020000040000fa
:04010000b003000048
:020000040000fa
:04010400b003000044
:020000040000fa
:04010800b003000040
:020000040000fa
:04010c00b00300003c
:020000040000fa
:04011000b003000038
:020000040000fa
:04011400b003000034
:020000040000fa
:04011800b003000030
:020000040000fa
:04011c00b00300002c
:020000040000fa
:04012000b003000028
:020000040000fa
:04012400b003000024
:020000040000fa
:04012800b003000020
:020000040000fa
:04012c00b00300001c
:020000040000fa
:04013000b003000018
:020000040000fa
:04013400b003000014
:020000040000fa
:04013800b003000010
:020000040000fa
:04013c00b00300000c
:020000040000fa
:04014000b003000008
:020000040000fa
:04014400b003000004
:020000040000fa
:04014800b003000000
:020000040000fa
:04014c00b0030000fc
:020000040000fa
:04015000b0030000f8
:020000040000fa
:04015400b0030000f4
:020000040000fa
:04015800b0030000f0
:020000040000fa
:04015c00b0030000ec
:020000040000fa
:04016000b0030000e8
:020000040000fa
:04016400b0030000e4
:020000040000fa
:04016800b0030000e0
:020000040000fa
:04016c00b0030000dc
:020000040000fa
:04017000b0030000d8
:020000040000fa
:04017400b0030000d4
:020000040000fa
:04017800b0030000d0
:020000040000fa
:04017c00b0030000cc
:020000040000fa
:04018000b0030000c8
:020000040000fa
:04018400b0030000c4
:020000040000fa
:04018800b0030000c0
:020000040000fa
:04018c00b0030000bc
:020000040000fa
:04019000b0030000b8
:020000040000fa
:04019400b0030000b4
:020000040000fa
:04019800b0030000b0
:020000040000fa
:04019c00b0030000ac
:020000040000fa
:0401a000b0030000a8
:020000040000fa
:0401a400b0030000a4
:020000040000fa
:0401a800b0030000a0
:020000040000fa
:0401ac00b00300009c
:020000040000fa
:0401b000b003000098
:020000040000fa
:0401b400b003000094
:020000040000fa
:0401b800b003000090
:020000040000fa
:0401bc00b00300008c
:020000040000fa
:0401c000b003000088
:020000040000fa
:0401c400b003000084
:020000040000fa
:0401c800b003000080
:020000040000fa
:0401cc00b00300007c
:020000040000fa
:0401d000b003000078
:020000040000fa
:0401d400b003000074
:020000040000fa
:0401d800b003000070
:020000040000fa
:0401dc00b00300006c
:020000040000fa
:0401e000b003000068
:020000040000fa
:0401e400b003000064
:020000040000fa
:0401e800b003000060
:020000040000fa
:0401ec00b00300005c
:020000040000fa
:0401f000b003000058
:020000040000fa
:0401f400b003000054
:020000040000fa
:0401f800b003000050
:020000040000fa
:0401fc00b00300004c
:020000040000fa
:04020000b003000047
:020000040000fa
:04020400b003000043
:020000040000fa
:04020800b00300003f
:020000040000fa
:04020c00b00300003b
:020000040000fa
:04021000b003000037
:020000040000fa
:04021400b003000033
:020000040000fa
:04021800b00300002f
:020000040000fa
:04021c00b00300002b
:020000040000fa
:04022000b003000027
:020000040000fa
:04022400b003000023
:020000040000fa
:04022800b00300001f
:020000040000fa
:04022c00b00300001b
:020000040000fa
:04023000b003000017
:020000040000fa
:04023400b003000013
:020000040000fa
:04023800b00300000f
:020000040000fa
:04023c00b00300000b
:020000040000fa
:04024000b003000007
:020000040000fa
:04024400b003000003
:020000040000fa
:04024800b0030000ff
:020000040000fa
:04024c00b0030000fb
:020000040000fa
:04025000b0030000f7
:020000040000fa
:04025400b0030000f3
:020000040000fa
:04025800b0030000ef
:020000040000fa
:04025c00b0030000eb
:020000040000fa
:04026000b0030000e7
:020000040000fa
:04026400b0030000e3
:020000040000fa
:04026800b0030000df
:020000040000fa
:04026c00b0030000db
:020000040000fa
:04027000b0030000d7
:020000040000fa
:04027400b0030000d3
:020000040000fa
:04027800b0030000cf
:020000040000fa
:04027c00b0030000cb
:020000040000fa
:04028000b0030000c7
:020000040000fa
:04028400b0030000c3
:020000040000fa
:04028800b0030000bf
:020000040000fa
:04028c00b0030000bb
:020000040000fa
:04029000b0030000b7
:020000040000fa
:04029400b0030000b3
:020000040000fa
:04029800b0030000af
:020000040000fa
:04029c00b0030000ab
:020000040000fa
:0402a000b0030000a7
:020000040000fa
:0402a400b0030000a3
:020000040000fa
:0402a800b00300009f
:020000040000fa
:0402ac00b00300009b
:020000040000fa
:0402b000b003000097
:020000040000fa
:0402b400b003000093
:020000040000fa
:0402b800b00300008f
:020000040000fa
:0402bc00b00300008b
:020000040000fa
:0402c000b003000087
:020000040000fa
:0402c400b003000083
:020000040000fa
:0402c800b00300007f
:020000040000fa
:0402cc00b00300007b
:020000040000fa
:0402d000b003000077
:020000040000fa
:0402d400b003000073
:020000040000fa
:0402d800b00300006f
:020000040000fa
:0402dc00b00300006b
:020000040000fa
:0402e000b003000067
:020000040000fa
:0402e400b003000063
:020000040000fa
:0402e800b00300005f
:020000040000fa
:0402ec00b00300005b
:020000040000fa
:0402f000b003000057
:020000040000fa
:0402f400b003000053
:020000040000fa
:0402f800b00300004f
:020000040000fa
:0402fc00b00300004b
:020000040000fa
:04030000b003000046
:020000040000fa
:04030400b003000042
:020000040000fa
:04030800b00300003e
:020000040000fa
:04030c00b00300003a
:020000040000fa
:04031000b003000036
:020000040000fa
:04031400b003000032
:020000040000fa
:04031800b00300002e
:020000040000fa
:04031c00b00300002a
:020000040000fa
:04032000b003000026
:020000040000fa
:04032400b003000022
:020000040000fa
:04032800b00300001e
:020000040000fa
:04032c00b00300001a
:020000040000fa
:10040000cf0521000eff26000e018800000000002d
:10041000000020000000e000020032000001200087
:100420002002880014000700cf0007000000e00051
:1004300003003a00a0c023000100200002003700a2
:100440000000200001002000810f70000100320038
:100450000f000700000020000000e0000200320052
:100460000000020000000000ca3c02000000000082
:100470000040da000000fe00802120000000e000c3
:1004800002003200002020009001880000000600d9
:10049000a1028800800478000000eb001f003700f4
:1004a000e284440054a0b4009905ba00e2844400f8
:1004b00054a0b4009906ba00e284440054a0b400e9
:1004c0000006eb00476fde00fd07b200ae018800ba
:1004d000636ce10003003a000ad801000000eb0061
:1004e0000e003700606ce10008003a00004deb00a0
:1004f0000a05e800020039003420ec000af0a000f0
:100500008b05e900f9ff3e00040037006168e10057
:10051000010032000086eb000b00070019c7ba008b
:100520001905ba000e04e00003003a000a00e000da
:10053000dbff3a0000000600fe07b200ae028800b2
:100540008a047800f5ff37000cd0a300e20f4d00bd
:100550001c00390089027800354dba000a05e80010
:10056000020039003420ec000af0a0008b05e900fd
:100570000f003200254dba000a05e80002003900dc
:100580003420ec000af0a0008b05e90008003200de
:100590000c00e0000600320015cdba000a05e800a4
:1005a000020039003420ec000af0a0008b05e900bd
:1005b0008984e80054a0b4000b00e000e2ff3a0098
:1005c000000006009902ba00055d78008b05e9007d
:1005d000f7ff3200c82ade00055d78008b05e900d0
:1005e000f3ff32000c00e000f1ff320019ddba0029
:1005f000eeff37000437040000000000c63b040093
:100600000000000062370400000000007c37040096
:1006100000000000ae37040000000000dc370400da
:10062000000000000c38040000000000183804002e
:10063000000000003e3804000000000022380400e2
:1006400000000000d03b040000000000da3b040082
:10065000000000006e360400000000009c3604001c
:1006600000000000d0360400000000003600f80052
:10067000c028a9000000eb00bb1c07003600f800f2
:10068000bd1c0700c048a90010002000b61c0700d0
:100690003600f800c068a90020002000b21c070046
:1006a0003600f800c088a90030002000ae1c07000a
:1006b0003600f800c608a90070002000aa1c070038
:1006c0003600f80021468000001020000080600005
:1006d0000000e00003003200c508a900c0002000af
:1006e000a11c070021468000000028000080600057
:1006f0000000e00003003200c5e8a90080002000ef
:10070000991c070021468000000220000080600044
:100710000000e00003003200c4a8a90090002000ff
:10072000911c070020468000700060000000e0007f
:1007300003003200c488a900a00020008a1c070022
:1007400020468000610060000000e00003003200ed
:10075000c408a900b0002000831c0700ffff370079
:100760000040da000000fe00000005006022b80032
:10077000060220000000d0008180d2000482d20056
:100780008582d2000000a0000202520083825a003b
:10079000030031000202420083824a000000a100ef
:1007a0000603e900f3ff3a0000000600800178002c
:1007b00002003700b15978000201e9000200e000b0
:1007c000fcff3a00000006008001780002003700bc
:1007d000815978000201e9000200e000fcff3a00c4
:0407e000000006000f
:020000040000fa
:1007e4000000000095000000000000000000000070
:1007f40001000000f90000000000000000000000fb
:100804000800000087000000040000000000000051
:1008140009000000af00000000000000010000001b
:100824000a0000001b00000000000000010000009e
:100834000c000000c30000000100000000000000e4
:100844000d000000af0000000200000000000000e6
:1008540010000000ff000000000000000000000085
:1008640011000000ff000000000000000100000073
:1008740012000000ff000000000000000100000062
:1008840018000000ff00000000000000010000004c
:1008940019000000ff00000000000000010000003b
:1008a40020000000ff000000000000000000000025
:1008b40021000000ff000000000000000000000014
:1008c40026000000df00000001000000000000001e
:1008d400370000007300000000000000000000006a
:1008e4003a000000250000000400000000000000a1
:1008f4003b00000025000000000000000000000094
:1009040029000000ff0000000400000000000000b7
:1009140017000000ff0000000000000000000000bd
:10092400809a0000454100008e4100008f80000045
:100934004545000045490000494900008e8f0000ec
:1009440090920000924f0000994f0000555500000e
:10095400599900009a9b00009c9d00009e9f0000f6
:10096400414900004f550000a5a50000a6a70000be
:10097400a8a90000aaab0000acad0000aeaf000017
:10098400b0b10000b2b30000b4b50000b6b70000c7
:10099400b8b90000babb0000bcbd0000bebf000077
:1009a400c0c10000c2c30000c4c50000c6c7000027
:1009b400c8c90000cacb0000cccd0000cecf0000d7
:1009c400d0d10000d2d30000d4d50000d6d7000087
:1009d400d8d90000dadb0000dcdd0000dedf000037
:1009e400e0e10000e2e30000e4e50000e6e70000e7
:1009f400e8e90000eaeb0000eced0000eeef000097
:100a0400f0f10000f2f30000f4f50000f6f7000046
:100a1400f8f90000fafb0000fcfd0000feff0000f6
:100a2400222a00002b2c00003a3b00003c3d000031
:100a34003e3f00005b5d00007c7f0000004600003c
:100a440041540000004600004154000033320000cd
:100a540000000000ef0300000380000002cf00004c
:100a640003000000c1300000ed0400006403000036
:100a740012810000e80300008500000078cb00002c
:100a8400053900002c00000034020000f7010000ca
:100a940020ea00000200000000c000000123000062
:100aa400c101000010c50000023e000028c700007c
:100ab40001860000360100004837000001000000f4
:100ac4003a01000055b100000200000018b6000011
:100ad4000308000082270000f20100000026000045
:100ae40001010000e00f00000f3100002b0c00009a
:100af4000e0800004ef1000037070000100300004c
:100b04000e09000000e100000f0000000e140000b8
:100b14000311000007310000c1480000080f000065
:100b24000c310000360f0000118000002980000005
:100b34000000000004370000c63b000062370000dc
:100b44007c370000ae370000dc3700000c380000b2
:100b5400183800003e380000223800000437000036
:100b6400d03b0000623700007c370000ae37000045
:100b7400dc3700000c380000183800003e38000054
:100b84002238000004370000da3b0000623700001e
:100b94007c370000ae370000dc3700000c38000062
:100ba400183800003e38000022380000303a0000b7
:100bb40000480000454c00004c4f00002e5400003b
:100bc4005854000000480000656c00006c6f000081
:100bd400205700006f7200006c64000021000000c8
:100be4006000000000000000000000006000000041
:100bf4004f0000000000000060000000040000003e
:100c040000000000200100000f00000000000000b0
:020000040000fa
:100c14000400fa00100798001e0090000000e8008d
:100c2400104078000080fb00000f78001e00780060
:100c3400c800dd001e009000104078000080fb001a
:100c4400008f70001e0078000080fa00000006008b
:100c54000600fa00200798002e0090006300400070
:100c6400104078000080fb008000eb00008fbe0085
:100c74001e00be004809dd00c801de0083017100ca
:100c84004801dd002e0090000080e800104078004c
:100c94000080fb008000eb00001f710001977100d1
:100ca4001e00be004809dd00c801de00830171009a
:100cb4004801dd002e0090000000e800104078009c
:100cc4000080fb008000eb00001f710001977100a1
:100cd4001e00be004809dd00c801de00830171006a
:100ce4004801dd002e009000104078000080fb00d9
:100cf4008000eb00001f7100019771001e00be0010
:100d04000080fa00000006000400fa00000f7800da
:100d1400110798001e009000804078001e007800a3
:100d2400014878001e0fe8001e0090004800de0015
:100d3400100798001e009000804078001e00780084
:100d4400014878001e0fe8000080fa000000060049
:100d54000600fa00000f7800120798002307980095
:100d64001e009000804078001e0078000148780042
:100d74001e0fe8001e009000ae0090004809dd0040
:100d84004800de0000007100c808de00100798006b
:100d9400210798001e009000804078001e00780013
:100da400014878001e0fe8001e009000ae0090007d
:100db4004809dd004800de0000007100c808de00bc
:100dc40010079800210798001e00900080407800ca
:100dd4001e007800014878001e0fe8001e009000f5
:100de400ae0090004809dd004800de0000007100fc
:100df400c808de0010079800210798001e00900024
:100e0400804078001e007800014878001e0fe8003a
:100e14000080fa00000006000a00fa00200798008b
:100e24003107980042079800ae009000010f780047
:100e3400be009000110798004e0090000000e000f2
:100e44000e0032001e009000904078001e007800d2
:100e5400014878001e0fe8001e0090000000e80022
:100e6400100798004e0090000000e9004007980029
:100e74004e0090000000e000f2ff3a000080fa000b
:100e8400000006000800fa001007980021079800e7
:100e9400320798009e009000010f78002e00900009
:100ea400804078001e007800014878001e0fe8009a
:100eb4003e0090000000e900300798003e009000da
:100ec4000000e000f5ff3a000080fa000000060090
:100ed4000c00fa0030079800410798005207980068
:100ee400be009000010f7800ce009000110798001a
:100ef4000000eb00200798001e00780010407800e6
:100f04008080fb001e009000104078000080fb00f1
:100f140000805000200798001e0fe8001e0090007b
:100f24000000e800100798005e0090000000e9004f
:100f3400500798005e0090000000e00003003200bb
:100f44002e0090000000e000ebff32002e00900025
:100f54000080fa00000006000400fa00000f780088
:100f640011079800010037001e0fe8001e007800ea
:100f7400104078000004e000060032001e007800f3
:100f8400104078008000fb001e009000808f50000d
:100f9400f5ff3a001e007800104078000000fb00c6
:100fa4000080fa00000006000200fa00004f7800fa
:100fb4001e4078000004e000020032000000eb0054
:100fc400010037000000eb000080fa00000006007a
:100fd4000200fa00004f78001e4078000004e00090
:100fe400020032000000eb00010037000000eb00bb
:100ff4000080fa00000006000400fa0010079800c0
:101004000000eb00000f78001e00900030409000bc
:101014000004e000390032001e0090009018900097
:10102400001890001e0190004603200002034300b4
:101034001e01900092429000140020000001be00a6
:101044008600780005407800eb1807000000e000f7
:1010540028003a001e0090008040eb0031409800c8
:101064001e00900000199000901990001e0090003e
:10107400b0109000201090000001510081815900af
:101084001e009000f008900060089000800f51004e
:10109400818f5900190031001e00900020409000fb
:1010a400e24f500015003a001e0090000019900015
:1010b400901990001e009000f008900060089000c5
:1010c40002004000838048001e0190004603200077
:1010d400020343001e01900092429000140020007d
:1010e4000001be008600780005407800c2180700a1
:1010f4000200370010002000000f78001e00780066
:101104000080fa00000006000800fa0010079800aa
:1011140022079800330798000000eb00000f7800c6
:101124001e00900000199000901990002e0090006d
:10113400be009000800f5100818f59001c003200c6
:101144001e009000acff0700000f78001e0078001e
:101154000000e00016003a001e0090004103200049
:10116400808040001e009000104090001400200079
:101174002e019000be019000821807000000e000dc
:10118400060032000080eb008080eb00200798000e
:101194003107980010002000000f78001e00900016
:1011a4002e019000be0190000218980013189800b8
:1011b4001e0078000080fa00000006000400fa0017
:1011c400100798001e0090008bff0700000f7800a6
:1011d4001e0078000000e0004e003a001e0090005f
:1011e40010407800e34f500041003a001e00900088
:1011f40040409000e14f50003d003a001e00900036
:101204004003b000022020008000eb001dff070017
:101214001e0090002023b00051a52a00bafe07004a
:101224001e0090004003b000222525001316240060
:10123400c7fe07001e0090008021b000222727006f
:1012440013142600c2fe07001e00900090089000b0
:10125400000890001e019000c421200002024200f8
:101264000001be0004007800b9fe07001e009000d3
:10127400f0009000600090001e0190000422200005
:10128400020242000001be0004007800b0fe070024
:101294001e0090009010900000109000610040002b
:1012a400e08048001e019000001998001119980070
:1012b4001e00900090189000001890001e019000ed
:1012c40046032000020343001e0190009242900056
:1012d400140020000001be0086007800054078005c
:1012e400451807001e0090008040eb004140980024
:1012f4001e009000104090000001eb008040eb00c5
:101304005a1807000000e00002003200100020001c
:10131400000f78001e0078000080fa00000006002c
:101324000600fa00000f78001207980023079800bf
:101334001e009000ae00900062005000e080580053
:1013440010079800210798001e007800d00890002c
:101354004008900062015000e08158001e00900097
:10136400ae009000800f5100818f590002003e00b2
:101374006000b800130037001e007800601290006f
:10138400f01290001e007800500090008000eb00e6
:101394001e0190000191b90002017800ae01900095
:1013a400009bb90086017800030141009e01900072
:1013b4000018b800010141008200780004004000d8
:1013c400858048000080fa00000006001000fa0042
:1013d4005007980062079800730798005e00900019
:1013e40090007800210798006e019000fe019000a3
:1013f4001000200001002000800f5100818f59004f
:10140400080036002e00900040099000d00990009a
:101414006e009000fe009000800f5100818f5900f3
:1014240004003e001000200001002000008fbe00d8
:10143400b10037000080eb008080eb00008fbe001d
:101444002e009000104078000080fb00e20f500056
:1014540057003200e30f500072003200e10f5000d9
:101464009a003a006e029000340798003e00900003
:101474000000d100be0090000080400030079800ba
:101484002e00900020119000b01190003e009000ba
:101494004900de008000eb00020040008380480029
:1014a4000001be002e00900017ff07000000e000be
:1014b4008a003a00be009000f01f20000080600007
:1014c400ae0090004003b000614078000080fb0053
:1014d400400798003e0090000000e80030079800a4
:1014e4002e00900020119000b01190003e0090005a
:1014f4004900de008000eb000200400083804800c9
:101504000001be002e009000fffe07000000e00076
:1015140074003a00be009000f01f200000806000bc
:10152400ae0090004003b000614078000080fb00f2
:101534004800dd00ce0090000100700040079800d4
:101544006e00900061006000004078000004e0003c
:10155400040032004e0090004400de006101b80037
:10156400110037004e0090006101b800f0ff200028
:101574000100200002027800030178008001780055
:101584000100780003026200000061008000eb00ab
:10159400c000dd00000020000001be006120b80092
:1015a4000001710081817100028fbe00520037007a
:1015b4002e00900020119000b01190006e00900059
:1015c400fe009000480add004800de0000007200c2
:1015d400c808de0002004000838048000001be000d
:1015e4002e009000c8fe07000000e0003f003a0013
:1015f4002e00900041032000808040006e00900087
:101604000000400000017800f01f2000000061008d
:10161400008040007efd07008000eb00008fbe00cc
:10162400350037002e00900020119000b01190007a
:101634006e009000fe009000490add004700de00c5
:1016440000007200c708de000200400083804800ea
:101654000001be002e009000abfe07000000e00079
:1016640024003a002e0090004103200080804000b6
:101674006e0090004201dd00f01f200000006100b8
:101684000080400072fd07000001be00f0ff2f0043
:10169400f1ff200002027800830178000001780045
:1016a4000100780002016200008061008000eb000c
:1016b400c000dd0000002000008fbe006110b800f3
:1016c4001e1f70001e9770000b00370010002000d2
:1016d40001002000008fbe0007003700000000005a
:1016e4000500370000000000030037000000000080
:1016f40001003700000000001e00be000080fa0058
:10170400000006001000fa00889fbe003007980011
:1017140042079800530798006407980075079800db
:1017240020002000000f78004e019000de019000a0
:101734001000200001002000800f5100818f59000b
:10174400f70036003e00900040099000d009900058
:101754004e009000de009000800f5100818f5900f0
:10176400ef0036003e009000104078000080fb003f
:10177400e20f500073003200e30f50009200320079
:10178400e10f5000e6003a00ce00900011079800e7
:101794001e0090000000d1009e00900000804000d8
:1017a400100798003e00900020119000b0119000a6
:1017b4001e0090004900de008000eb0002004000a3
:1017c400838048000001be003e0090004efe0700ea
:1017d400000f78001e0078000000e000c9003a0005
:1017e4003e00900041032000808040001e019000d4
:1017f400f01f2000000061000080400020079800d6
:101804001e0090000000e800100798004e009000b1
:1018140061006000004078000004e0000a0032002b
:101824002e00900010407800ef4060006e009000a1
:10183400004078000080fb004400dd000040780098
:1018440000c07000020037006e0090000040780075
:10185400ae009000804878003e00900011c0b300b4
:10186400314098003e00900020119000b01190008b
:101874001e0090004900de008000eb0002004000e2
:10188400838048000001be003e0090001efe070059
:10189400000f78001e0078000000e0009b003a0072
:1018a4003e00900041032000808040001e01900013
:1018b400f01f200000006100008040002007980015
:1018c4004e00900061006000004078000004e000d9
:1018d400080032006e009000fe0090004c09dd000c
:1018e4004400de0000007100c408de0000407800ff
:1018f4000e0037002e0090001040780080407800e1
:1019040000cfb30000c160006e009000fe009000a4
:10191400c809dd004800de0000807100c808de0050
:10192400004078006f40600000407100ae009000fd
:10193400804878003e00900011c0b3003140980008
:10194400770037003e00900020119000b011900005
:101954004e009000de009000480add004800de00e2
:1019640000007200c808de000200400083804800c6
:101974000001be003e009000e3fd0700000f780068
:101984001e0078000000e00062003a00ee009000c3
:101994003e00900042032000000141004e009000f0
:1019a4000000400080017800f01f200000806100ea
:1019b40000004100d4fc07003e00900011c0b300b9
:1019c40031409800560037003e00900020119000ee
:1019d400b01190004e009000de009000490add0036
:1019e4004700de0000007200c708de00020040006d
:1019f400838048000001be003e009000c2fd070045
:101a0400000f78001e0078000000e00043003a0058
:101a14006e019000fe019000f0ff2f00f1ff200006
:101a24000202780083017800000178000100780048
:101a340002016200008061008000eb00c000dd0054
:101a4400000020000004be006110b800000474000f
:101a5400818474003e009000410320008080400097
:101a64004e0090004201dd00f01f200000006100e4
:101a74000080400076fc07000001be00000020004a
:101a840001002f0002027800030178008001780031
:101a94000100780003026200000061008000eb0096
:101aa400c000dd00000020000001be006120b8007d
:101ab4000001710081817100020074008380740050
:101ac40060079800710798003e00900041032000d1
:101ad400808040004e0090004201dd00f01f200095
:101ae40000006100008040006e019000fe01900043
:101af40097fc07003e00900011c0b30031409800ed
:101b04000700370000000000050037000000000057
:101b1400030037000000000001003700000000004f
:101b24001e0078004f04be000080fa00000006008a
:101b34001200fa00400798005207980063079800c3
:101b440074079800050f98000000eb00000f780060
:101b54004e00900090007800110798005e019000fc
:101b6400ee0190001000200001002000800f5100c1
:101b7400818f5900080036001e0090004009900033
:101b8400d00990005e009000ee009000800f51009c
:101b9400818f590002003e002000200061003700c0
:101ba4007e0090008e089000e00f5000e08f5800f7
:101bb4000c0032000082eb008082eb007e0190007a
:101bc4008e0990001e009000cefe0700000f7800e2
:101bd4001e0078000000e000020032001e007800c1
:101be400500037005e019000ee0190004e0090001e
:101bf400f6fd070020079800310798002e0090009a
:101c0400be009000e00f5000e08f58004300320007
:101c14002e019000be019000100020000100200061
:101c2400800f5100818f590002003a0020002000eb
:101c34003c0037002e019000be0190000080eb00b4
:101c44008080eb00800f5100818f590002003a0020
:101c540010002000330037006022b8005e019000bd
:101c6400ee0190001e009000a6fe0700000f780011
:101c74001e0078000000e000020032001e00780020
:101c8400280037001e009000000990009009900081
:101c94001e009000d00890004008900062005000a0
:101ca400e0805800800f5100818f59000e003100f0
:101cb4001e00900090089000000890006100400011
:101cc400e08048001e019000000998001109980066
:101cd4001e00900040409000804078000104a00065
:101ce4001e009000414098002e019000be0190001b
:101cf40052079800630798001e0090004009900066
:101d0400d00990005e009000ee009000800f51001a
:101d1400818f5900b3ff3e0001003700000000002e
:101d24000000eb000080fa00000006001600fa0034
:101d3400000f9800120f9800230f98000e089000cf
:101d440090007800510798001e089000ae0890009b
:101d5400e00f5000e08f580017003a005e0090003a
:101d640060019000f001900022079800330798006a
:101d74002e009000be009000e00f5000e08f58004d
:101d8400080032005e00900040099000d0099000e5
:101d94002e009000be009000800f5100818f5900ea
:101da4002e003e00100020000100200020079800b3
:101db40031079800290037001e099000ae099000f1
:101dc4000e08900081fd07006007980071079800d5
:101dd4006e019000fe019000100020000100200020
:101de400800f5100818f590003003e001000200035
:101df40001002000ef0037006e019000fe0190000a
:101e04000080eb008080eb00800f5100818f59002f
:101e140003003a006e009000fe009000e5003700d9
:101e24005e00900040099000d00990006e00900080
:101e3400fe009000800f5100818f5900030036008e
:101e44006e009000fe009000da0037001e0990003a
:101e5400ae09900022079800330798005e009000b6
:101e64009008900000089000e00f5000e08f5800a8
:101e740002003a006000b800ce0037006000b800ed
:101e8400008fbe002e019000be0190001e0890003d
:101e9400ae089000800f5100818f590044003a0031
:101ea4002e009000be0090001200200003002000cd
:101eb400021f4000039748005e009000d008900085
:101ec40040089000be0f5000ae8f580003003e0043
:101ed4002000200001002000008fbe001e01be0073
:101ee4000e08900039fd07006007980071079800fc
:101ef4006e019000fe0190001000200001002000ff
:101f0400800f5100818f5900070032006e0190004c
:101f1400fe0190000080eb008080eb00800f5100f8
:101f2400818f590003003a006e009000fe0090007b
:101f3400a00037006e009000fe009000e00f5000fb
:101f4400e08f58001a0032005e009000600190009b
:101f5400f001900062079800730798006e019000ea
:101f6400fe0190001000200001002000800f5100ad
:101f7400818f59000c0036005e00900040099000eb
:101f8400d00990006e009000fe009000800f510078
:101f9400818f5900040036006e019000fe0190000c
:101fa40022079800330798006000b800008fbe0035
:101fb4001e00be00e00f5000e08f58003e003a00c3
:101fc4002e019000be019000028fbe000100370078
:101fd4000000000012002000030020001e0f41003a
:101fe4005e9749005e009000d00890004008900081
:101ff400be0f5000ae8f58000b003e0020002000a2
:1020040001002000008fbe002e009000be00900052
:102014001e01be00800f5100818f5900020036005e
:102024006000b800630037001e01be000e08900077
:10203400e6fc070060079800710798006e009000a6
:10204400fe009000e00f5000e08f580019003200ad
:102054006e019000fe01900010002000010020009d
:10206400800f5100818f5900070032006e019000eb
:10207400fe0190000080eb008080eb00800f510097
:10208400818f590003003a006e009000fe0090001a
:10209400480037002e009000be0090001e01be00d4
:1020a400800f5100818f5900c9ff3a006000b800c9
:1020b40040003700000000000082eb008082eb004b
:1020c4001e01be005e0090008efd070040079800d0
:1020d4004e0090000000e0000b003a001e08900043
:1020e400ae089000e00f5000e08f58000600320068
:1020f4001e02be001e099000ae0990005e00900012
:1021040080fd0700400798004e0090000000e000aa
:102114001e003a005e0090001e01be00620098009e
:10212400730098005e0090000009900090099000f0
:102134005e009000d00890004008900062005000bb
:10214400e0805800800f5100818f590008003e0044
:102154005e0090009008900000089000610050001c
:10216400e08058005e019000000998001109980071
:102174005e00900040409000804078000104a00080
:102184005e00900041409800090037004e00900026
:10219400e10f500003003a000080eb008080eb0068
:1021a400020037001000200001002000008fbe0054
:1021b4001e00be000080fa00000006001000fa00b5
:1021c4005007980062079800730798005e0090001b
:1021d40089fb07000000e00002003200100020002c
:1021e400340037006e019000fe0190005e00900004
:1021f4004bfc070010079800210798005e00900030
:102204001e019000ae019000021898001318980067
:102214005e0090004003b000022020008000eb002c
:1022240018fb07005e0090004003b00030079800e0
:1022340010002000400798000000eb00000f780019
:10224400020037004e0090001e0f40005e00900018
:10225400500090009e0f50000f0036001e007800c2
:102264006101b8001e009000ae0090000200400022
:10227400838048005e019000924290004e029000dc
:102284000001be00be009000054078005a1407000b
:102294000000e000ebff32005e0090005000900070
:1022a4001e00680000f0a7000000ea000000ea0039
:1022b4004f00de000080fa00000006001000fa0063
:1022c4005007980062079800730798005e0090001a
:1022d40090007800210798006e019000fe019000a4
:1022e400f0ff2f00f1012000800f5100818f590071
:1022f40014003e006e019000fe019000f0012000e9
:1023040001002000020278000301780080017800b7
:102314000100780003026200000061008000eb000d
:10232400c000dd00000020000001be006120b800f4
:102334000001710081817100e00f5100e08f5900ac
:1023440002003200200020008b0037005e00900065
:102354006e019000fe01900072009800030898003e
:102364005e00900030019000c0019000028fbe001a
:102374001e00be00e00f5000e08f580008003a0035
:102384002e00900010407800e24f50000400360008
:102394002e00900040119000d0119000028fbe00da
:1023a4001e00be00e00f5000e08f580015003a00f8
:1023b4006e009000fe009000c509de004b0add00af
:1023c4004501de00020172002e00900040009000e2
:1023d4008000eb00800f5100818f5900020039000a
:1023e40020002000640037002e009000d0109000e0
:1023f400401090005e019000300998004109980057
:10240400390037002e009000500090006101b800a0
:102414004918dd00c710de00810070004910dd009e
:102424003007980041079800220037005e009000b2
:102434001e01be00e5fb0700008fbe001e01be00aa
:102444000080eb008080eb00800f5100818f5900e9
:1024540002003a0010002000470037001e01be00b1
:102464001000200001002000800f5100818f5900ce
:10247400060036002e009000d0089000400890001e
:10248400be0f5000ae8f580002003e002000200016
:10249400390037006e019000fe0190003e0090006c
:1024a400ce00900000005100818059006007980020
:1024b400710798006e019000fe0190003e009000ac
:1024c400ce009000800f5100818f5900d7ff31005a
:1024d4001e01be002e00900091fb07005e019000db
:1024e40030099800410998005e0090001e01be006a
:1024f40012089800230898005e009000c00890001d
:1025040030089000e00f5000e08f580002003a00bd
:1025140020002000180037005e0090003009900071
:10252400c00990006e009000fe009000470add0094
:102534004900de0000007200c908de00020040000d
:10254400838048005e01900030099800410998009a
:102554002e00900041032000808040006e01900016
:10256400f01f200000006100808040005e009000a9
:10257400510898000000eb000080fa0000000600fb
:102584000e00fa0050079800610798005e00900062
:1025940090007800210798005e0090008008900069
:1025a400700090000002b0000180b0003007980075
:1025b400410798005e009000c00890003008900029
:1025c400e00f5000e08f5800070032003e019000f9
:1025d400ce019000f0ff2f00f1012000800f510088
:1025e400818f59000200360040002000b3003700fc
:1025f4003e019000ce019000f01f20000100200059
:10260400020278000301780080017800010078005c
:1026140003026200000061008000eb00c000dd00e6
:10262400000020000001be006120b800000171001c
:1026340081817100e00f5100e08f590090003a0051
:102644005e009000c00890003008900061004000d7
:10265400e08048005e01900030099800410998002c
:102664005e009000a008900010089000e00f500059
:10267400e08f580012003a003e009000ce00900017
:10268400c509de004b0add004501de0002017200cf
:102694002e009000400090008000eb00800f51005d
:1026a400818f5900760039005e0190006000b80007
:1026b4003009980041099800400020007f0037004d
:1026c4003e009000ce009000c909de00470add00fc
:1026d4004901de00020172002e00900050009000bb
:1026e4000000e9008000eb0002027800030178009a
:1026f400800178000100780003026200000061009c
:102704008000eb00c000dd00000020000001be00de
:102714006120b8000001710081817100e00f510057
:10272400e08f590056003a005e009000a008900027
:10273400100890005e0290000001be0004007800c2
:1027440022fb0700008fbe001e01be001000200007
:1027540001002000800f5100818f590002003e00cb
:1027640020002000550037001e01be000080eb0051
:102774008080eb00800f5100818f590002003a00e5
:10278400100020004d0037002e009000d00890006b
:1027940040089000be0f5000ae8f58002e003e003f
:1027a4006e0090000000e00006003a005e01900018
:1027b4006000b800300998004109980040002000ea
:1027c4003e0037005e009000a008900010089000c2
:1027d4005e0290000001be000400780053fd070073
:1027e400008fbe001e00be00e00f5000e08f5800b6
:1027f40002003a0070002000300037001e01be00c5
:102804001000200001002000800f5100818f59002a
:1028140002003a0020002000280037001e01be00fc
:102824000080eb008080eb00800f5100818f590005
:1028340002003a0010002000200037001e01be00f4
:102844002e0090005dfe07000000e0000200320050
:1028540010002000190037005e0090001e01be0029
:1028640012089800230898001e01be002e00900054
:10287400abfa07005e019000300998004109980006
:102884005e0090003e019000ce019000720098001e
:10289400030898002e00900041032000808040002f
:1028a4003e019000f01f2000000061008080400085
:1028b4005e009000510898000000eb000080fa00d0
:1028c400000006000a00fa0030079800410798004b
:1028d4003e00900090007800210798006011b80035
:1028e4003e00900075fe0700000f78001e0078007f
:1028f4000000e00029003a000000eb0010079800f7
:102904003e009000c0089000300890000001be0016
:102914002e009000fcf90700000f78001e007800dc
:102924000000e0001c003a003e00900050089000b7
:1029340010407800fb4f4000050032003e0090003c
:1029440050089000104078000004e00008003a00ad
:102954001e0090000000e800100798009e00900000
:102964004e009000808f500003003a000b003700a7
:102974000000eb0010079800110020003e009000ba
:10298400fffe0700000f78001e0078000000e00042
:10299400dbff320001003700000000001e00780059
:1029a400e40f500002003a0070002000000f78008d
:1029b4001e0078000080fa00000006000800fa00fb
:1029c40020079800310798003e0090007a004000ec
:1029d4008ff807008000eb00008fbe002e009000ef
:1029e40010407800e34f500008003a003e00900089
:1029f4007400400086f807008000eb00c000dd0092
:102a0400000020001e1f70001e9770001e00be00f4
:102a14000080fa00000006000800fa00000f7800a9
:102a2400110798002207980033079800ae00900021
:102a34001e0090007a004000b3f807001e007800e2
:102a440010407800e34f500007003a002e00900039
:102a5400be0090004008de00800078001e00900058
:102a640074004000a8f807000080fa000000060087
:102a74000800fa00300798003e00900090007800ab
:102a8400110798006011b8003e0090000bfe07008b
:102a9400000f78001e0078000000e0000200320001
:102aa4001e007800380037003e009000c0089000f7
:102ab400300890000001be001e00900092f907004b
:102ac400000f78001e0078000000e0002a003a00a1
:102ad4003e00900050089000104178004247980052
:102ae4004e4090000004e00003003a004000200043
:102af400000f7800230037003e009000500890003b
:102b04006b00400010407800f2c3b30082406000c4
:102b14003e009000414098003e0090005008900014
:102b24006b004000104078000080fb0068006000eb
:102b34000000e00008003a003e009000fc00400065
:102b44003e00900050089000b2002000e0f807001a
:102b54000000e0000a0032008000eb003e0090001c
:102b640087fe0700000f78001e0078000000e000d8
:102b7400cdff3200030037000000000001003700e1
:102b8400000000001e0078000080fa00000006002b
:102b94000600fa00200798002e00900090007800ac
:102ba40011079800110020002e00900045ff070037
:102bb400000f78001e0078000000e00018003a00c2
:102bc4002e009000c0089000300890000001be0064
:102bd4001e0090004cf90700000f78001e007800da
:102be4000000e0000e003a002e0090005008900013
:102bf400020220008000eb00a2f807002e009000e3
:102c0400fc0040002e00900050089000b20020000c
:102c140081f807001e00900011c0b30031409800f5
:102c24001e0078000080fa00000006001200fa007e
:102c340070079800010f98000e089000900078002b
:102c4400410798007e0090007c00400050079800e7
:102c5400b2002000010220005e00900089f8070005
:102c64000000eb0030079800be0090002107980098
:102c74008000200010079800ce0090002e009000e5
:102c84000080400090407800e0c2b30080cf500044
:102c940036003a00ce0090002e00900000804000e4
:102ca40010407800004f78002e0090000000e800eb
:102cb40020079800e0c2b3009e40780080cf500007
:102cc4000b003a002e009000e20f500008003e0076
:102cd400de0090003e009000008040001e48780016
:102ce4003e0090000000e80030079800e9ff37003c
:102cf400f0c2b3009e40780080cf50000a0032003a
:102d0400c0c5b3009e40780080cf5000060032005a
:102d140000c2b3009e40780080cf5000020036000d
:102d240060002000b7003700ce0090002e00900015
:102d3400808040000e089000010878005e0090003a
:102d4400eb00400000c2b3001e417800804f5100e8
:102d540002003e0040c2b3000100370000c2b300cd
:102d6400804878000000eb00a6003700ce009000f9
:102d74002e0090000080400010407800004f780042
:102d84002e0090000000e8002007980000c2b30065
:102d94009e40780080cf50007d003600f0c2b30022
:102da4009e40780080cf500009003200c0c5b300b7
:102db4009e40780080cf500015003a00050037008f
:102dc4002e0090000000e800200798000100370062
:102dd40000000000ce0090002e0090000080400013
:102de40090407800f0c2b30080cf5000f4ff32006e
:102df400ce0090002e0090000080400090407800ab
:102e0400c0c5b30080cf5000edff32006100370031
:102e1400e0c2b3009e40780080cf5000040032002e
:102e2400be0090001e009000808f50000f003900fb
:102e34001e009000eb0f500004003200e0c2b3000b
:102e44009e40780080cf50000200320060002000d5
:102e54006c0037008000200030079800b00020008c
:102e64001007980000000000c0ff37001e407800e3
:102e74000004e00005003d009e80fb00f0072000f8
:102e84000080600021492800614f78001e407800ce
:102e940045f807000000e00023003200ce00900057
:102ea4002e0090000080400010407800404f9800b1
:102eb4002e0090000000e800200798004e48900083
:102ec40043f807000000e000050032001e009000f7
:102ed4008000e9003e009000808f500002003e0018
:102ee4006000200047003700de0090003e009000a4
:102ef400008040001e4878003e0090000000e8007a
:102f040030079800de0090003e00900000804000f2
:102f1400ce489000014878003e0090000000e80090
:102f24003007980091ff37001e80fb008000780076
:102f34002051280008f807000000e00002003200d9
:102f4400600020002f00370000c6b3009e407800c8
:102f540080cf500006003600a0c7b3009e40780022
:102f640080cf500002003e0000ceb3001e4f400050
:102f7400de0090003e009000008040001e48780073
:102f84003e0090000000e8003007980077ff37000b
:102f940000000000ce0090002e00900080804000d1
:102fa4000e089000010878003e0090000000e00048
:102fb40002003a0060002000120037005e0090001a
:102fc40010407800fb4f400003003a005e00900080
:102fd40051c0b300014878005e009000eb0040004f
:102fe40000c2b3001e417800804f510002003e0031
:102ff40040c0b300010037000040eb008048780077
:103004000000eb000080fa00000006000a00fa004d
:1030140030079800410798003e0090009000780027
:10302400110798004e00900090407800f0c2b30061
:1030340080cf5000100032004e0090009040780085
:10304400c0c5b30080cf50000d0032001e009000b8
:10305400b0089000200890003e01900030019800d4
:1030640041019800150037004e0090000000e80070
:1030740040079800030037000000000001003700fb
:10308400000000004e00900090407800f0c2b300b1
:1030940080cf5000f4ff32004e0090009040780042
:1030a400c0c5b30080cf5000efff32003e01900056
:1030b4006000b80030019800410198004e00900073
:1030c40010407800ff4f500008003e003e00900082
:1030d40001c8b300716098006011b8003e00900010
:1030e40076fc0700000f78005500370068004700a1
:1030f400800078003e009000ccfe0700000f7800ae
:103104001e0078000000e00046003a003e009000f7
:1031140057fe0700000f78003e009000f06090001a
:10312400414798001e0078000000e0001e003200b5
:103134001e007800e40f50003c003a004e4090001e
:103144008080fb0000022000008060000000e0009e
:103154000d0032004e4090000080fb0064006000cf
:103164000000e00002003a0000000000dfff37002a
:103174003e00900001c8b300716098000000eb00ad
:10318400000f78002e0037004e4090000080fb00b6
:10319400640060000000e00026003a0050002000b7
:1031a400000f7800260037004e4090000080fb009e
:1031b400640060000000e00020003a003e0090003f
:1031c400404090000080fb00700060000000e000c0
:1031d40003003a0050002000000f78001800370068
:1031e4001e00900042032000000141003e009000b8
:1031f400800890007000900080007800f01f20008c
:103204000080600000004100800078001e009000f3
:10321400eafd07003e01900030019800410198004a
:10322400b2ff370000000000050037000000000076
:103234000300370000000000010037000000000018
:103244001e0078000080fa00000006000c00fa005e
:10325400500798000080eb00200798005e00900063
:103264009000780031079800be009000010f7800ac
:103274003e0090000000e00002003a002e009000a2
:10328400320037001e00780090407800014f98000b
:103294001e0fe8008e48900000c2b30080cf50009b
:1032a400040036008e489000a0c3b30080cf5000c5
:1032b400f4ff3a008e489000a0c3b30080cf5000c2
:1032c4001e003a0010002000100798003e009000f5
:1032d40090407800f0c2b30080cf50000e0034005c
:1032e4003e0090009040780090c3b30080cf50001f
:1032f40009003c003e0090000080e8009e0f500052
:1033040005003a003e009000104078000000fb00e9
:103314000003b100100798001e0090000000e000b8
:1033240004003c009e009000210798005e0090007d
:103334001e0878002e0090000400370016d0bf004d
:103344000080fb00200798002e0090000080fa0007
:10335400000006000600fa00000f7800120798002b
:10336400230798001e0078008040eb00314098004d
:103374001e0178000080eb008080eb0000199800ab
:10338400111998001e019000ae0190001e007800f3
:103394005df707000000e0000200320040c0b30007
:1033a40029003700212320001e80400018f6070062
:1033b40051a52a00810f50000200320030c0b30032
:1033c400210037001e00780040709000f74f400045
:1033d400080032001e00780040709000f54f400055
:1033e400040032001e00780040709000f84f400046
:1033f40014003a00410320001e8040006003b00026
:103404003200200011522800b1f607000000e0004d
:1034140002003a000040eb000b003700410320009b
:103424001e8040002005b0005200200051522800a8
:10343400a7f607000000e00002003a000040eb009d
:103444000100370020c0b3000080fa00000006002d
:103454003c00fa00301f9800411f9800227f98001a
:103464004e1890008000eb00010878003e18900090
:1034740076ff0700200f98002e0890000000e0005f
:1034840002003d00b0002000430237002e089000e7
:10349400800040002001210000804000900078005e
:1034a400310f98003e0890000000e00002003a004e
:1034b400c0002000380237004e1890003e099000ea
:1034c400020878002e7890000004a100207f980064
:1034d4003e089000104078000004e000150032001f
:1034e4003e08900010409000730f0700005f9800a2
:1034f4000e5890000080fb00610060000000e000b6
:103504000c003a002e7890000004e000070032001e
:103514000e5890000080fb00640060000000e00092
:1035240002003200a00020001b0237000000eb0064
:10353400190237003e0890008040eb0001487800f3
:103544002e089000804078003e08900011409800ba
:103554003e08900010409000750f0700005f98002f
:103564000e5890000080fb0061006000004078006d
:103574000004e000020032003000200006023700a0
:103584002e7890000004e000070032000e589000ee
:103594000080fb00640060000000e00002003200d4
:1035a400a0002000fc0137006000b800100798005c
:1035b400210798001e019000ae0190003e08900083
:1035c40064ff0700004f78001e407800e24f50006f
:1035d40045003a000000eb00100f98001a00370075
:1035e4003e08900041032000808040001e089000a7
:1035f4004400dd00e01bb00000804000500f980044
:103604005e08900064004000104078000004e00070
:10361400040032005e089000680040008cf507004a
:10362400010037006000b8001e0990004211dd005f
:10363400020147006202b0000089be001e0890002b
:103644000000e800100f98001e089000e30f5000df
:10365400e3ff36000000eb00100f98001e089000f6
:103664000000e000030032001e0890000000e900a2
:10367400100f98001e0890004200dd006102200037
:103684008e804000008040001001be0012079800a8
:10369400230798001e009000ae009000e00f500039
:1036a400e08f5800050032001e019000ae0190002a
:1036b4003e08900027ff07000100370030c0b30028
:1036c400004f78001e407800e14f5000060036009d
:1036d4001e0890000000e800100f98001e089000db
:1036e400e30f5000e3ff36001e407800e44f500023
:1036f40002003a0010002000a70137001e407800a5
:10370400e14f500002003600d0002000a201370033
:103714003e089000f003b0003df5070001202000b2
:10372400810f500002003200d00020009a013700bf
:103734003e089000a004b00035f507008000eb00bf
:1037440030079800410798003e009000ce0090009a
:10375400e00f5000e08f580005003a003e0890004a
:103764008005b0003af5070030079800410798003b
:103774003e0890003e019000ce019000620898003f
:10378400730898003e089000c0c090003e08900066
:10379400214098003e08900020409000e14f5000e6
:1037a400060032003e08900020409000e24f500096
:1037b40002003200d0002000770137003e0890005c
:1037c400204090000080fb008000eb004e01900040
:1037d4000091b90002017800be019000019ab9007d
:1037e4008401780003014100be0190000018b80074
:1037f40001014100820078003007980041079800d9
:1038040030079800410798003e08900010c09000cf
:103814008080fb003e089000510098003e08900014
:10382400500090000000e000080032003e089000c4
:10383400d00090003e089000500090000000e90085
:10384400008060000000e00002003200d000200090
:10385400510137003e0890005004b000ecf407001a
:10386400be089000c00098003e0890004000900000
:103874006f0060000000e00002003200d000200071
:10388400450137003e0890007004b000e0f40700e2
:103894008000eb0050079800610798005e009000dc
:1038a400ee009000e00f5000e08f580005003a0051
:1038b4003e0890004005b000e5f40700500798006a
:1038c400610798003e0890002004b000d0f407007f
:1038d400600f98006e0890000000e00002003a00bb
:1038e400d00020002c0137006e0890006101b80060
:1038f4003e009000ce009000020140008381480009
:103904003e089000400090004400de008000eb0080
:103914000200400083804800700f9800011798004f
:103924005e019000ee0190007e0890008e109000e1
:10393400800f5100818f590002003100d000200017
:10394400150137005e019000ee0190007e089000a2
:103954008e10900000025100818259003e089000b0
:10396400500090008000eb000001be000400be0087
:103974007df3070010179800211798001e1090007f
:10398400ae109000e00f5000e08f580002003a00a3
:10399400d0002000000137000040eb00004f780009
:1039a4001e119000ae11900050ff2f00f1ff200077
:1039b400800f5100818f590002003e0030c0b300d7
:1039c400004f78001e119000ae11900050ff2f00a0
:1039d40001002000800f5100818f590002003e0039
:1039e40020c0b300004f78001e119000ae1190006b
:1039f40050ff200001002000800f5100818f5900ea
:103a040002003e0010c0b300004f78001e40780052
:103a14000004e00002003a00d0002000de0037007d
:103a24001e109000ae10900062004000e08048003c
:103a34003e09900040099800510998003e08900002
:103a44001e019000ae01900002109800131098001f
:103a54006e0890006101b8001e009000ae00900056
:103a640002004000838048003e0990002011980025
:103a7400311198001e019000ae0190007e08900064
:103a84008e10900002004000838048003e099000a0
:103a940060119800711198001e407800e34f5000a7
:103aa4001d003a003e089000e005b00058f40700fd
:103ab4000000e00002003200d0002000b600370011
:103ac4003e089000400090000000e0000200320038
:103ad400d0002000b00037003e0890000006b0007f
:103ae4005bf407003e0990004011980051119800c2
:103af4003e08900040099000d00990004218dd0073
:103b0400ce10de00810070004210dd0070079800c6
:103b1400010f98003d0037003e08900040009000df
:103b24000000e00002003a00d00020009a003700b4
:103b34003e08900020119000b01190003e009000cb
:103b4400ce00900002004000838048003e099000af
:103b540040119800511198001e407800e24f500027
:103b640006003a003e089000d008900040089000fb
:103b74000000400081804800220037003e08900089
:103b8400d0089000400890006309b9000201780051
:103b94006002b90084017800030141003300200071
:103ba4000300b80001014100820078008102d100c5
:103bb4000082d3003e08900040099000d009900094
:103bc40010002000010020000203780003017800a7
:103bd40080017800010078000303630000006100a5
:103be4008000eb00c000dd00000020000001be00ea
:103bf4006130b8000001710081817100040041004e
:103c04008580490070079800010f98003e089000d5
:103c140060099000f00990007e0090008e089000ea
:103c2400f01fb0000180b000470add004900de004b
:103c340000007200c908de00800f5100818f590016
:103c440002003100d0002000530037003e099000ec
:103c54000080eb008080eb000009980011099800b7
:103c64003e08900090089000000890003e099000e3
:103c740060019800710198003e08900001c8b300eb
:103c8400414098001e407800e34f500035003a0050
:103c94003e0890004006b000ddf30700e10f50003d
:103ca40030003a001e009000ae0090006100400019
:103cb400e08048000001be003e08900012f50700b5
:103cc4000000e00027003a003e0890008040eb002e
:103cd400414098003e0890002023b000ccf3070038
:103ce40051a52a00810f50001e003a003e089000a2
:103cf4004003b000d6f307000001be0020252500d4
:103d040011162400800f5100818f590015003a00cc
:103d14003e0890008021b000cdf307000001be00f2
:103d24002027270011142600800f5100818f59008d
:103d34000c003a003e089000c021b000c4f3070014
:103d44003e09900000099800110998003e0890006f
:103d54000022b000bef307003e0990006001980005
:103d6400710198003e0890001e487800a0808000f1
:103d74000000e800a0808800a18080003e08900038
:103d8400310098003e0990006000b80020099800b6
:103d9400310998000000eb000080fa0000000600e2
:103da4000600fa00100798002107980090002000f0
:103db400000f78001e0090000000e0001a0032009e
:103dc4001e009000100078000000e0001600320091
:103dd4001e00900010007800104078000004e000fd
:103de400110032001e009000900090001e00900010
:103df4001000780030009000808f50000a003a00d4
:103e04001e00900010007800104090002a0d07005a
:103e14000080fb00610060000000e00002003a0046
:103e24000000eb00000f78001e0078000000e000a6
:103e340003003a001e0090001000780001003700d3
:103e44000000eb00ae009000800878001e007800af
:103e54000080fa00000006000e00fa0040079800f7
:103e640051079800424f98005e0090003007980078
:103e740066004700f5fc0700000f78001e0078007c
:103e84000000e00002003d00b000200023003700e5
:103e94001e007800800040002001210000804000c6
:103ea40090007800110798001e0090000000e000c8
:103eb400030032001e0090008040eb0001487800af
:103ec4004e0090000000e000030032004e0090001d
:103ed4008040eb0001487800ce0090001e0078007e
:103ee4000001400020012100000041000108780089
:103ef4004e4890000004e00002003a000000eb008d
:103f040006003700e80047006a0047000041eb0064
:103f14004ffd0700200798002e0090000080fa0053
:103f2400000006004a00fa00202798003127980074
:103f340002cf98002e2090000000e00002003a001a
:103f440090002000710137000ec89000f043b200c9
:103f540000cf9800210420008e80400060042000df
:103f64000e0040000ec9900039fd0700000f7800d4
:103f74001e0078000000e0005d013a001e20900061
:103f8400500f9800be2090007a0047001ffc0700e5
:103f9400000f78001e0078000000e00005003a00e1
:103fa4001ec090000004e00002003d0060002000fc
:103fb400000f78000ec890000080fb007c006000b9
:103fc4000000e0005d0032001e0078000000e00008
:103fd4000a0032001e007800e40f500003003a008b
:103fe4007a004700eafa0700000f78000ec8900034
:103ff4000034a00000cf98000f0037006e589000e6
:104004000080fb00710060000000e000030032004b
:1040140070002000000f7800070037000ec89000e1
:104024000080fb00640060000000e0000200320039
:1040340080002000000f78001e0078000000e000df
:1040440056003a000ec890000080fb006800600033
:104054000000e00051003200ae1890001e209000d5
:1040640056fa070050079800610798002e18900030
:104074006e00400002002000c304250034f3070052
:104084002e1890006b00400001c2b3000148780074
:10409400ae1890001e2090006011b8005efa070070
:1040a4002e1890007c0040006011b80028f307002f
:1040b4001e20900011c0b300314098005e009000b3
:1040c400ee009000e00f5000e08f58003300320003
:1040d4001e2090000019900090199000720798001b
:1040e400030f98007a0047006022b8005e01900038
:1040f400ee0190008ef60700000f78001e00780095
:104104000000e00025003a001e2090007e0190008f
:104114008e099000fcf30700000f78001e21900028
:104124005e009000ee00900061005000e0805800b6
:104134006001980071019800180037001e00780093
:104144000000e00015003a006e5890000080fb006b
:10415400700060000000e000030032004000200016
:10416400000f78000d0037000ec890000080fb009f
:10417400620060000000e000080032006e58900009
:104184000080fb0061006000004078000004e00053
:104194000200320070002000000f78001e0078003a
:1041a4000000e00011003a000ec890000080fb00ff
:1041b400680060000000e000030032000ec89000b8
:1041c4000064a00000cf98001e209000901890007a
:1041d400001890002e219000600998007109980041
:1041e400ae1890002e209000011098001e00780058
:1041f4000000e000be003a00ae1890001e209000bf
:10420400eef907002e21900030019800410198003a
:104214002e1890007c0040008df207002e219000a3
:1042240050019800610198009e2090002e2090007b
:10423400010878001e209000b00090002e2090000d
:10424400110098002e2090008ec9900063489800b9
:104254002e2090008040eb00714898002e219000a1
:104264006000b80040099800510998002e21900080
:104274006000b80000099800110998002e209000f1
:104284002002b000022020008000eb00fdf20700b5
:104294000ec890008080fb000002200000806000b7
:1042a4000000e000920032002e209000e000900018
:1042b40050009000e00f5000e08f58008c00320056
:1042c4002e209000e0009000500090002e219000dd
:1042d40000099800110998001e20900050009000d9
:1042e4006101b8004918dd00c710de0081007000cc
:1042f4004910dd00100f9800210f98002e20900027
:1043040030019000c0019000120798002307980024
:104314002e20900050019000e00190003207980098
:1043240043079800200037002e2090001e019000c3
:10433400ae01900025f407001007980021079800ab
:104344001e019000ae01900010002000010020002a
:10435400800f5100818f590002003e002000200090
:10436400000f78001e019000ae0190000080eb0069
:104374008080eb00800f5100818f590002003a00c9
:1043840010002000000f78003e019000ce01900044
:104394001e089000ae089000000051008180590072
:1043a40030079800410798001e0078000000e000e4
:1043b40007003a003e019000ce0190001e089000d4
:1043c400ae089000800f5100818f5900d6ff3e0047
:1043d4002e2090001e019000ae019000220898004b
:1043e400330898001e0078000000e00040003a0006
:1043f4003e019000ce019000f01f2000010020003b
:10440400020278000301780080017800010078003e
:1044140003026200000061008000eb00c000dd00c8
:10442400000020000001be006120b80000017100fe
:1044340081817100e00f5100e08f59002c0032009f
:104444001e2090001e019000ae019000b4f30700fe
:10445400300f9800410f98003e089000ce0890005d
:10446400e00f5000e08f580003003a0020002000c5
:10447400000f78001e0037003e009000ce00900030
:10448400c909de00470add004901de0002017200ad
:104494003e089000ce08900002004000838048004f
:1044a4002e21900040099800510998002e20900078
:1044b400d0089000400890002e2190002602200091
:1044c400020343001e219000924290001400200039
:1044d4000001be008600780005407800a90b0700a3
:1044e4000000e0000200320010002000000f7800fd
:1044f4001e0078000000e000030032002e2090002f
:104504008000eb00010878001e0078000080fa00ab
:10451400000006002000fa00400f9800510f980098
:10452400620f9800730f9800de08900051079800fe
:104534007e0890008000eb00010878004e0890008f
:10454400f600470016fe0700000f78001e007800f2
:104554000000e00007003a004e0890007048900008
:104564000080fb00000f78001e0078000000e000cf
:10457400020032001e007800260137004e08900029
:10458400604890000080fb00610060000000e000d3
:1045940002003a00700020001e0137004e0890000f
:1045a40050019000e00190004e08900090089000a7
:1045b40000089000000051008180590060079800b5
:1045c400710798006e0890006101b8006e009000b9
:1045d400fe009000800f5100818f590009013600c0
:1045e4006e019000620f9800060137004e0890009b
:1045f4000009900090099000f01f200001002000a5
:10460400020278000301780080017800010078003c
:1046140003026200000061008000eb00c000dd00c6
:10462400000020000001be006120b80000017100fc
:1046340081817100e00f5100e08f5900bc003a0005
:104644004e0890009008900000089000c709dd0013
:104654004900de0000807100c908de008000780097
:104664003e089000500090000000e90000806000c7
:10467400000f98000e0890000000e00032003a009d
:104684004e0890009008900000089000e00f500041
:10469400e08f580006003a004e0890003001900068
:1046a400c001900012079800230798000900370002
:1046b4004e089000b0089000200890004e0a900028
:1046c4000001be000400780040f3070010079800c2
:1046d400210798001e019000ae01900010002000f8
:1046e40001002000800f5100818f590005003e0019
:1046f4004e08900021c0b3007148980020002000ab
:10470400c40037001e019000ae0190000080eb0051
:104714008080eb00800f5100818f590005003a0022
:104724004e08900011c0b30071489800100020009a
:10473400b80037004e0890001e019000ae019000b2
:1047440022089800330898004e089000b0089000a2
:10475400200890003e0a90000001be00040078008a
:10476400eff20700100f9800210f98001e08900028
:10477400ae089000e00f5000e08f580005003a00aa
:104784004e08900021c0b30071489800200020001a
:10479400a00037000e0890008000eb001e09900076
:1047a400ae0990000200400083804800100f98007a
:1047b400210f98006e0890004900de004007980021
:1047c4004e0090000000e0001e0032008e089000b1
:1047d4004e009000808040003e0890005000900001
:1047e400808f5000050036003e089000d0009000f5
:1047f4000e08900000805000400798003e0890008a
:10480400104090004e0290001e099000ae099000e6
:10481400de009000db0a07000000e0000500320023
:104824004e08900011c0b300714898001000200099
:10483400780037004e0090004900dd0030079800f2
:10484400580037004e08900040099000d0099000ad
:104854001e089000ae089000800f5100818f59000f
:104864002e0032004e089000604890000004e000e2
:104874001a003d004e089000d008900040089000b7
:104884004e09900026022000020343003e099000d6
:1048940092429000140020000001be0086007800bf
:1048a40005407800d40a07000000e000050032004b
:1048b4004e08900011c0b300714898001000200009
:1048c400540037004e089000604890008040780003
:1048d4000174a1004e089000614898004e089000b1
:1048e40021022000808040003e089000104090008b
:1048f400140020001e099000ae099000a10a0700d0
:104904000000e000050032004e08900011c0b30022
:1049140071489800100020003e0037004e089000b7
:104924001e099000ae0990004208980053089800b0
:104934004e089000900890000008900080007800d5
:10494400f01f200000806000012020000080500043
:1049540030079800be0090006e089000808f5000d1
:1049640002003600ee099000330798004e089000cc
:1049740022022000000141004e089000900890009f
:104984000008900080007800f01f20000080600084
:10499400000041003e019000800078005e0090001d
:1049a4001df10700ee0890003e00900000805000ca
:1049b400600f98007e089000900078003e00900000
:1049c400808040007e08900001087800de0090009e
:1049d4003e00900000804000500798004e08900070
:1049e40000099000900990003e0090008000eb00c8
:1049f40002004000838048004e099000000998009e
:104a0400110998006e0890000000e000f7fe3a00db
:104a14000000eb000080fa00000006001c00fa0011
:104a2400200f9800310f9800420f9800530f980000
:104a3400be089000510798005e0890008000eb00cb
:104a4400010878002e089000f2004700d4fc07000b
:104a5400000f78001e0078000000e00007003a0014
:104a64002e089000704890000080fb00000f780032
:104a74001e0078000000e000020032001e007800f2
:104a8400650137002e089000604890000080fb000c
:104a9400620060000000e00002003a0070002000a4
:104aa4005d0137002e0890000009900090099000e5
:104ab4004e0890008000eb00020140008381480012
:104ac4002e0890009008900000089000800f51007c
:104ad400818f5900440131002e0890009008900005
:104ae4000008900000017800020078000080ea00cd
:104af4008180ea00400f98003b0137002e089000a7
:104b04000009900090099000f01f2000010020008f
:104b14000202780003017800800178000100780027
:104b240003026200000061008000eb00c000dd00b1
:104b3400000020000001be006120b80000017100e7
:104b440081817100e00f5100e08f5900df003a00cd
:104b54002e08900090089000000890004709dd009e
:104b64004900de0000007100c908de008000780002
:104b74001e089000500090000000e90000806000d2
:104b8400600798006e0090000000e0004c003a00be
:104b94002e0890009008900000089000e00f50004c
:104ba400e08f580010003a002e0890003001900069
:104bb400c001900012079800230798001e0090007f
:104bc400ae009000e00f5000e08f58000f003a0054
:104bd4002e0890006011b80054f4070010079800e4
:104be40021079800090037002e089000b0089000b3
:104bf400200890002e0a90000001be0004007800f6
:104c04004af4070010079800210798001e0090003e
:104c1400ae009000e00f5000e08f5800f600320024
:104c24001e019000ae019000100020000100200041
:104c3400800f5100818f590005003a002e08900022
:104c440021c0b3007148980020002000f200370012
:104c54001e019000ae0190000080eb008080eb000c
:104c6400800f5100818f590005003a002e089000f2
:104c740011c0b3007148980010002000e60037000e
:104c84002e0890001e019000ae01900022089800aa
:104c9400330898002e089000c00090003000900067
:104ca400e00f5000e08f580005003a002e089000f5
:104cb4001e019000ae01900032009800430098005d
:104cc4002e089000604890000004e0001a003d00a7
:104cd4002e089000d0089000400890002e09900003
:104ce40026022000020343001e0990009242900015
:104cf400140020000001be00860078000540780002
:104d0400bd0907000000e000050032002e089000f5
:104d140011c0b3007148980010002000be00370095
:104d24002e08900060489000804078000174a10033
:104d34002e089000614898002e089000b00890005a
:104d4400200890001e0a90000001be0004007800b4
:104d540073f1070070079800010f98007e0090001f
:104d64008e089000e00f5000e08f580005003a00d4
:104d74002e08900021c0b300714898002000200044
:104d8400a50037006e0090008000eb007e019000cb
:104d94008e0990000200400083804800700798004c
:104da400010f98004e0890004900de00400798006b
:104db4004e0090000000e0001e003200ee00900063
:104dc4004e009000808040001e089000500090002b
:104dd400808f5000050036001e089000d00090001f
:104de4006e00900000805000400798001e0890005c
:104df400104090004e0290007e0190008e099000b9
:104e0400de0090007c0907000000e000050032008d
:104e14002e08900011c0b3007148980010002000c3
:104e24007d0037004e0090004900dd0030079800f7
:104e3400480037002e08900040099000d0099000e7
:104e44007e0090008e089000800f5100818f5900e1
:104e5400190032002e08900000099000900990007b
:104e64002e089000e000900050009000800f510048
:104e7400818f5900100031002e089000210220007b
:104e8400808040001e089000104090001400200014
:104e94007e0190008e0990003a0907000000e000ae
:104ea400050032002e08900011c0b300714898002c
:104eb40010002000580037002e0890007e0190005a
:104ec4008e09900042089800530898002e0890001c
:104ed400900890000008900080007800f01f2000e7
:104ee40000806000012020000080500030079800fe
:104ef400be0090004e089000808f500002003600e3
:104f0400ce099000330798002e089000220220005a
:104f1400000141002e0890009008900000089000c5
:104f240080007800f01f2000008060000000410035
:104f34003e019000de009000b7ef07002e089000bd
:104f440060489000804078000174a0002e08900012
:104f540061489800ce0890003e0090000080500008
:104f6400400f98005e089000900078003e0090008a
:104f7400808040005e08900001087800de00900008
:104f84003e00900000804000500798002e089000da
:104f940000099000900990003e0090008000eb0012
:104fa40002004000838048002e0990000009980008
:104fb400110998002e089000e00090005000900025
:104fc4002e0990009209900002099000820f50006f
:104fd400838f5800010031000200be002e099000aa
:104fe40050019800610198004e0890000000e00014
:104ff400c2fe3a0001003700000000002e089000b5
:1050040060489000804078000164a0002e08900061
:10501400614898000000eb000080fa0000000600e0
:105024000c00fa00500798005e009000e80047006a
:105034005bfb0700000f78001e0078000000e00012
:1050440061003a005e009000604890008080fb00a0
:1050540000042000008060000000e0005a003200dc
:105064005e009000604890000004e00017003d00de
:105074005e009000d0089000400890005e0190000f
:1050840026022000020343004e0190009242900049
:10509400140020000001be0086007800054078005e
:1050a400d50807000000e0000200320010002000d4
:1050b400460037005e009000604890008040780011
:1050c4000174a1005e009000614898000000200077
:1050d400c104250010079800210798005e00900085
:1050e400f0089000600890004e0290000001be009d
:1050f4000400780004f00700000f78001e00780018
:105104000000e00030003a005e0090008010900043
:10511400310798003e0090006b004000be009000f4
:10512400eb804000914078000154a00001487800d1
:105134005e009000c0009000300090005e0190007e
:10514400120278000001be00be0090000400780046
:1051540031f607005e009000e000900050009000df
:105164003e0190007c0241000001be000400780072
:10517400f7ee07003e009000760040001e0190000c
:10518400ae019000f2ee07003e0090007200400075
:105194008000eb00dcee07004e00900011c0b3006d
:1051a400314098004e00900004f00700000f780092
:1051b4005e00900060489000804078000164a10087
:1051c4005e009000614898001e0078000080fa009c
:1051d400000006000600fa00200798002e00900048
:1051e4008fff0700000f78001e0078000000e00029
:1051f4000a003a002e0090008e80e800e8fa0700ca
:10520400000f78001e0078000000e00003003a0060
:105214002e0090008000eb00010878001e0078004a
:105224000080fa00000006000400fa00100798004d
:105234000e80e80005f80700000f78001e007800d3
:105244000000e00002003d00b00020000400370030
:105254001e0078000040780016f0b7000000eb0054
:105264000080fa00000006002e00fa00881f780073
:1052740060179800a10220008e804000c002200028
:105284000e0040000041eb0071f80700000f7800a9
:105294001e0078000000e00025003a005e10900037
:1052a40010079800ee1090000e80e80057f70700f2
:1052b400000f78001e0078000000e00017003a009c
:1052c4001e6890000004e00006003d005e1190009e
:1052d4004e009000de0090002009980031099800eb
:1052e4000e0037006e4090000080fb0070006000ec
:1052f4000000e000070032005e149000ee08900009
:105304005e109000adf50700200c9800310c980059
:105314000200370050002000000f78001e007800c3
:10532400e40f500002003a0050002000000f780003
:105334001e0078004f0478000080fa000000060088
:105344000000fa0001718000000420000080600069
:1053540000f0a7000000ea000000ea004f00de00b1
:10536400004078000080fa00000006000000fa0007
:10537400908280000080fa00000006000000fa001d
:10538400b0828000c18280000080fa000000060024
:105394001800fa00000f9800110f9800220f9800cf
:1053a400330f98000040eb00004f78003e08900057
:1053b4004900dd00100798003e0890004900dd0018
:1053c4008000eb002007980031079800ae08900099
:1053d400410798000e0990009e099000520798001a
:1053e4006307980010c0b300604f9800f02c84004d
:1053f400000001000004a2000004e00002003200ea
:105404000040eb001600370022eea900010037002f
:10541400000000000e80e8004c02070010479800ce
:105424001e4090000004e00003003a0010c0b300e6
:10543400004f7800060037001e409000e14f400006
:10544400f3ff3a000040eb00004f7800000000003a
:1054540022eea800e02c8400000001001e40780029
