:020000040000fa
:080000000002040000000000f2
:020000040000fa
:0400080036030000bb
:020000040000fa
:04000c0048030000a5
:020000040000fa
:040010005803000091
:020000040000fa
:040014003e030000a7
:020000040000fa
:040018005003000091
:020000040000fa
:04001c00b00300002d
:020000040000fa
:040020006003000079
:020000040000fa
:04002400b003000025
:020000040000fa
:04002800b003000021
:020000040000fa
:04002c00b00300001d
:020000040000fa
:04003000b003000019
:020000040000fa
:04003400b003000015
:020000040000fa
:04003800b003000011
:020000040000fa
:04003c00b00300000d
:020000040000fa
:04004000b003000009
:020000040000fa
:04004400b003000005
:020000040000fa
:04004800b003000001
:020000040000fa
:04004c00b0030000fd
:020000040000fa
:04005000b0030000f9
:020000040000fa
:04005400b0030000f5
:020000040000fa
:04005800b0030000f1
:020000040000fa
:04005c00b0030000ed
:020000040000fa
:04006000b0030000e9
:020000040000fa
:04006400b0030000e5
:020000040000fa
:04006800b0030000e1
:020000040000fa
:04006c00b0030000dd
:020000040000fa
:04007000b0030000d9
:020000040000fa
:04007400b0030000d5
:020000040000fa
:04007800b0030000d1
:020000040000fa
:04007c00b0030000cd
:020000040000fa
:04008000b0030000c9
:020000040000fa
:04008400b0030000c5
:020000040000fa
:04008800b0030000c1
:020000040000fa
:04008c00b0030000bd
:020000040000fa
:04009000b0030000b9
:020000040000fa
:04009400b0030000b5
:020000040000fa
:04009800b0030000b1
:020000040000fa
:04009c00b0030000ad
:020000040000fa
:0400a000b0030000a9
:020000040000fa
:0400a400b0030000a5
:020000040000fa
:0400a800b0030000a1
:020000040000fa
:0400ac00b00300009d
:020000040000fa
:0400b000b003000099
:020000040000fa
:0400b400b003000095
:020000040000fa
:0400b800b003000091
:020000040000fa
:0400bc00b00300008d
:020000040000fa
:0400c000b003000089
:020000040000fa
:0400c400b003000085
:020000040000fa
:0400c800b003000081
:020000040000fa
:0400cc00b00300007d
:020000040000fa
:0400d000b003000079
:020000040000fa
:0400d400b003000075
:020000040000fa
:0400d800b003000071
:020000040000fa
:0400dc00b00300006d
:020000040000fa
:0400e000b003000069
:020000040000fa
:0400e400b003000065
:020000040000fa
:0400e800b003000061
:020000040000fa
:0400ec00b00300005d
:020000040000fa
:0400f000b003000059
:020000040000fa
:0400f400b003000055
:020000040000fa
:0400f800b003000051
:020000040000fa
:0400fc00b00300004d
:020000040000fa
:04010000b003000048
:020000040000fa
:04010400b003000044
:020000040000fa
:04010800b003000040
:020000040000fa
:04010c00b00300003c
:020000040000fa
:04011000b003000038
:020000040000fa
:04011400b003000034
:020000040000fa
:04011800b003000030
:020000040000fa
:04011c00b00300002c
:020000040000fa
:04012000b003000028
:020000040000fa
:04012400b003000024
:020000040000fa
:04012800b003000020
:020000040000fa
:04012c00b00300001c
:020000040000fa
:04013000b003000018
:020000040000fa
:04013400b003000014
:020000040000fa
:04013800b003000010
:020000040000fa
:04013c00b00300000c
:020000040000fa
:04014000b003000008
:020000040000fa
:04014400b003000004
:020000040000fa
:04014800b003000000
:020000040000fa
:04014c00b0030000fc
:020000040000fa
:04015000b0030000f8
:020000040000fa
:04015400b0030000f4
:020000040000fa
:04015800b0030000f0
:020000040000fa
:04015c00b0030000ec
:020000040000fa
:04016000b0030000e8
:020000040000fa
:04016400b0030000e4
:020000040000fa
:04016800b0030000e0
:020000040000fa
:04016c00b0030000dc
:020000040000fa
:04017000b0030000d8
:020000040000fa
:04017400b0030000d4
:020000040000fa
:04017800b0030000d0
:020000040000fa
:04017c00b0030000cc
:020000040000fa
:04018000b0030000c8
:020000040000fa
:04018400b0030000c4
:020000040000fa
:04018800b0030000c0
:020000040000fa
:04018c00b0030000bc
:020000040000fa
:04019000b0030000b8
:020000040000fa
:04019400b0030000b4
:020000040000fa
:04019800b0030000b0
:020000040000fa
:04019c00b0030000ac
:020000040000fa
:0401a000b0030000a8
:020000040000fa
:0401a400b0030000a4
:020000040000fa
:0401a800b0030000a0
:020000040000fa
:0401ac00b00300009c
:020000040000fa
:0401b000b003000098
:020000040000fa
:0401b400b003000094
:020000040000fa
:0401b800b003000090
:020000040000fa
:0401bc00b00300008c
:020000040000fa
:0401c000b003000088
:020000040000fa
:0401c400b003000084
:020000040000fa
:0401c800b003000080
:020000040000fa
:0401cc00b00300007c
:020000040000fa
:0401d000b003000078
:020000040000fa
:0401d400b003000074
:020000040000fa
:0401d800b003000070
:020000040000fa
:0401dc00b00300006c
:020000040000fa
:0401e000b003000068
:020000040000fa
:0401e400b003000064
:020000040000fa
:0401e800b003000060
:020000040000fa
:0401ec00b00300005c
:020000040000fa
:0401f000b003000058
:020000040000fa
:0401f400b003000054
:020000040000fa
:0401f800b003000050
:020000040000fa
:0401fc00b00300004c
:020000040000fa
:04020000b003000047
:020000040000fa
:04020400b003000043
:020000040000fa
:04020800b00300003f
:020000040000fa
:04020c00b00300003b
:020000040000fa
:04021000b003000037
:020000040000fa
:04021400b003000033
:020000040000fa
:04021800b00300002f
:020000040000fa
:04021c00b00300002b
:020000040000fa
:04022000b003000027
:020000040000fa
:04022400b003000023
:020000040000fa
:04022800b00300001f
:020000040000fa
:04022c00b00300001b
:020000040000fa
:04023000b003000017
:020000040000fa
:04023400b003000013
:020000040000fa
:04023800b00300000f
:020000040000fa
:04023c00b00300000b
:020000040000fa
:04024000b003000007
:020000040000fa
:04024400b003000003
:020000040000fa
:04024800b0030000ff
:020000040000fa
:04024c00b0030000fb
:020000040000fa
:04025000b0030000f7
:020000040000fa
:04025400b0030000f3
:020000040000fa
:04025800b0030000ef
:020000040000fa
:04025c00b0030000eb
:020000040000fa
:04026000b0030000e7
:020000040000fa
:04026400b0030000e3
:020000040000fa
:04026800b0030000df
:020000040000fa
:04026c00b0030000db
:020000040000fa
:04027000b0030000d7
:020000040000fa
:04027400b0030000d3
:020000040000fa
:04027800b0030000cf
:020000040000fa
:04027c00b0030000cb
:020000040000fa
:04028000b0030000c7
:020000040000fa
:04028400b0030000c3
:020000040000fa
:04028800b0030000bf
:020000040000fa
:04028c00b0030000bb
:020000040000fa
:04029000b0030000b7
:020000040000fa
:04029400b0030000b3
:020000040000fa
:04029800b0030000af
:020000040000fa
:04029c00b0030000ab
:020000040000fa
:0402a000b0030000a7
:020000040000fa
:0402a400b0030000a3
:020000040000fa
:0402a800b00300009f
:020000040000fa
:0402ac00b00300009b
:020000040000fa
:0402b000b003000097
:020000040000fa
:0402b400b003000093
:020000040000fa
:0402b800b00300008f
:020000040000fa
:0402bc00b00300008b
:020000040000fa
:0402c000b003000087
:020000040000fa
:0402c400b003000083
:020000040000fa
:0402c800b00300007f
:020000040000fa
:0402cc00b00300007b
:020000040000fa
:0402d000b003000077
:020000040000fa
:0402d400b003000073
:020000040000fa
:0402d800b00300006f
:020000040000fa
:0402dc00b00300006b
:020000040000fa
:0402e000b003000067
:020000040000fa
:0402e400b003000063
:020000040000fa
:0402e800b00300005f
:020000040000fa
:0402ec00b00300005b
:020000040000fa
:0402f000b003000057
:020000040000fa
:0402f400b003000053
:020000040000fa
:0402f800b00300004f
:020000040000fa
:0402fc00b00300004b
:020000040000fa
:04030000b003000046
:020000040000fa
:04030400b003000042
:020000040000fa
:04030800b00300003e
:020000040000fa
:04030c00b00300003a
:020000040000fa
:04031000b003000036
:020000040000fa
:04031400b003000032
:020000040000fa
:04031800b00300002e
:020000040000fa
:04031c00b00300002a
:020000040000fa
:04032000b003000026
:020000040000fa
:04032400b003000022
:020000040000fa
:04032800b00300001e
:020000040000fa
:04032c00b00300001a
:020000040000fa
:10040000cf0521000eff26000e018800000000002d
:10041000000020000000e000020032000001200087
:100420002002880014000700cf0007000000e00051
:1004300003003a00a02a2b00010020000200370030
:100440000000200001002000810f70000100320038
:100450000f000700000020000000e0000200320052
:10046000000002000000000016b2020000000000c0
:100470000040da000000fe00807427000000e00069
:1004800002003200002020009001880000000600d9
:10049000a1028800800478000000eb001f003700f4
:1004a000e284440054a0b4009905ba00e2844400f8
:1004b00054a0b4009906ba00e284440054a0b400e9
:1004c0000006eb00476fde00fd07b200ae018800ba
:1004d000636ce10003003a000ad801000000eb0061
:1004e0000e003700606ce10008003a00004deb00a0
:1004f0000a05e800020039003420ec000af0a000f0
:100500008b05e900f9ff3e00040037006168e10057
:10051000010032000086eb000b00070019c7ba008b
:100520001905ba000e04e00003003a000a00e000da
:10053000dbff3a0000000600fe07b200ae028800b2
:100540008a047800f5ff37000cd0a300e20f4d00bd
:100550001c00390089027800354dba000a05e80010
:10056000020039003420ec000af0a0008b05e900fd
:100570000f003200254dba000a05e80002003900dc
:100580003420ec000af0a0008b05e90008003200de
:100590000c00e0000600320015cdba000a05e800a4
:1005a000020039003420ec000af0a0008b05e900bd
:1005b0008984e80054a0b4000b00e000e2ff3a0098
:1005c000000006009902ba00055d78008b05e9007d
:1005d000f7ff3200c82ade00055d78008b05e900d0
:1005e000f3ff32000c00e000f1ff320019ddba0029
:1005f000eeff37003ead04000000000066b20400cc
:10060000000000009cad040000000000b6ad040036
:1006100000000000e8ad04000000000016ae040079
:100620000000000046ae04000000000052ae0400ce
:100630000000000078ae0400000000005cae040082
:100640000000000070b20400000000007ab2040054
:1006500000000000a8ac040000000000d6ac0400bc
:10066000000000000aad0400000000003600f800a1
:10067000c028a9000000eb000b5807003600f80066
:100680000d580700c048a9001000200006580700b8
:100690003600f800c068a9002000200002580700ba
:1006a0003600f800c088a90030002000fe5707007f
:1006b0003600f800c608a90070002000fa570700ad
:1006c0003600f80021468000001020000080600005
:1006d0000000e00003003200c508a900c0002000af
:1006e000f1570700214680000000280000806000cc
:1006f0000000e00003003200c5e8a90080002000ef
:10070000e9570700214680000002200000806000b9
:100710000000e00003003200c4a8a90090002000ff
:10072000e157070020468000700060000000e000f4
:1007300003003200c488a900a0002000da57070097
:1007400020468000610060000000e00003003200ed
:10075000c408a900b0002000d3570700ffff3700ee
:100760000040da000000fe00000005006022b80032
:10077000060220000000d0008180d2000482d20056
:100780008582d2000000a0000202520083825a003b
:10079000030031000202420083824a000000a100ef
:1007a0000603e900f3ff3a0000000600800178002c
:1007b00002003700b15978000201e9000200e000b0
:1007c000fcff3a00000006008001780002003700bc
:1007d000815978000201e9000200e000fcff3a00c4
:0407e000000006000f
:020000040000fa
:1007e400ffff0000ffff0000ffff0000ffff00000d
:1007f400ffff0000ffff0000ffff0000ffff0000fd
:10080400ffff0000ffff0000ffff0000ffff0000ec
:10081400ffff0000ffff0000ffff0000ffff0000dc
:10082400ffff0000ffff0000ffff0000ffff0000cc
:10083400ffff0000ffff0000ffff0000ffff0000bc
:10084400ffff0000ffff0000ffff0000ffff0000ac
:10085400ffff0000ffff0000ffff0000ffff00009c
:10086400ffff0000ffff0000ffff0000ffff00008c
:10087400ffff0000ffff0000ffff0000ffff00007c
:10088400ffff0000ffff0000ffff0000ffff00006c
:10089400ffff0000ffff0000ffff0000ffff00005c
:1008a400ffff0000ffff0000ffff0000ffff00004c
:1008b400ffff0000ffff0000ffff0000ffff00003c
:1008c400ffff0000ffff0000ffff0000ffff00002c
:1008d400ffff0000ffff0000ffff0000ffff00001c
:1008e400ffff0000ffff0000ffff0000ffff00000c
:1008f40075d500002cb300008aaa0000beff0000da
:10090400ffff0000ffff0000ffff0000ffff0000eb
:10091400ffff0000ffff0000ffff0000ffff0000db
:10092400ffff0000ffff0000ffff0000ffff0000cb
:10093400ffff0000ffff0000ffff0000ffff0000bb
:10094400ffff0000ffff0000ffff0000ffff0000ab
:10095400ffff0000ffff0000ffff0000ffff00009b
:10096400ffff0000ffff0000ffff0000ffff00008b
:10097400ffff0000ffff0000ffff0000ffff00007b
:10098400ffff0000ffff0000ffff0000ffff00006b
:10099400ffff0000ffff0000ffff0000ffff00005b
:1009a400ffff0000ffff0000ffff0000ffff00004b
:1009b400ffff0000ffff0000ffff0000ffff00003b
:1009c400ffff0000ffff0000ffff0000ffff00002b
:1009d400ffff0000ffff0000ffff0000ffff00001b
:1009e400ffff0000ffff0000ffff0000ffff00000b
:1009f400ffff0000ffff0000ffff0000ffff0000fb
:100a0400ffff0000ffff0000ffff0000ffff0000ea
:100a1400ffff0000ffff0000ffff0000ffff0000da
:100a2400ffff0000ffff0000ffff0000ffff0000ca
:100a3400ffff0000ffff0000ffff0000ffff0000ba
:100a4400ffff0000ffff0000ffff0000ffff0000aa
:100a5400ffff0000ffff0000ffff0000ffff00009a
:100a6400ffff0000ffff0000ffff0000ffff00008a
:100a7400ffff00007df700008aaa00000068000064
:100a84000068000000680000007800007df70000a6
:100a9400ffff0000ffff0000ffff0000ffff00005a
:100aa400ffff0000ffff0000ffff0000ffff00004a
:100ab400ffff0000ffff0000ffff0000ffff00003a
:100ac400ffff0000ffff0000ffff0000ffff00002a
:100ad400ffff0000ffff0000ffff0000ffff00001a
:100ae400ffff0000ffff0000ffff0000ffff00000a
:100af400ffff0000ffff0000ffff0000ffff0000fa
:100b0400ffff0000ffff0000ffff0000ffff0000e9
:100b1400ffff0000ffff0000ffff0000ffff0000d9
:100b2400ffff0000ffff0000ffff0000ffff0000c9
:100b3400ffff0000ffff0000ffff0000ffff0000b9
:100b4400ffff0000ffff0000ffff0000ffff0000a9
:100b5400ffff0000ffff0000ffff0000ffff000099
:100b6400ffff0000ffff0000ffff0000ffff000089
:100b7400ffff0000ffff0000ffff0000ffff000079
:100b8400ffff0000ffff0000ffff0000ffff000069
:100b9400ffff0000ffff0000ffff0000ffff000059
:100ba400ffff0000ffff0000ffff0000ffff000049
:100bb400ffff0000ffff0000ffff0000ffff000039
:100bc400ffff0000ffff0000ffff0000ffff000029
:100bd400ffff0000ffff0000ffff0000ffff000019
:100be400ffff0000ffff0000ffff0000ffff000009
:100bf400ffff0000ffff0000ffff0000ffff0000f9
:100c040096dd00008280000000680000007800008b
:100c14000078000000700000249100009eff000096
:100c2400ffff0000ffff0000ffff0000ffff0000c8
:100c3400ffff0000ffff0000ffff0000ffff0000b8
:100c4400ffff0000ffff0000ffff0000ffff0000a8
:100c5400ffff0000ffff0000ffff0000ffff000098
:100c6400ffff0000ffff0000ffff0000ffff000088
:100c7400ffff0000ffff0000ffff0000ffff000078
:100c8400ffff0000ffff0000ffff0000ffff000068
:100c9400ffff0000ffff0000ffff0000ffff000058
:100ca400ffff0000ffff0000ffff0000ffff000048
:100cb400ffff0000ffff0000ffff0000ffff000038
:100cc400ffff0000ffff0000ffff0000ffff000028
:100cd400ffff0000ffff0000ffff0000ffff000018
:100ce400ffff0000ffff0000ffff0000ffff000008
:100cf400ffff0000ffff0000ffff0000ffff0000f8
:100d0400ffff0000ffff0000ffff0000ffff0000e7
:100d1400ffff0000ffff0000ffff0000ffff0000d7
:100d2400ffff0000ffff0000ffff0000ffff0000c7
:100d3400ffff0000ffff0000ffff0000ffff0000b7
:100d4400ffff0000ffff0000ffff0000ffff0000a7
:100d5400ffff0000ffff0000ffff0000ffff000097
:100d6400ffff0000ffff0000ffff0000ffff000087
:100d7400ffff0000ffff0000ffff0000ffff000077
:100d8400ffff0000ffff0000ffff000071cc000028
:100d9400007000000068000020780000cfb300005d
:100da400ebaa000020780000249100009eff0000c0
:100db400ffff0000ffff0000ffff0000ffff000037
:100dc400ffff0000ffff0000ffff0000ffff000027
:100dd400ffff0000ffff0000ffff0000ffff000017
:100de400ffff0000ffff0000ffff0000ffff000007
:100df400ffff0000ffff0000ffff0000ffff0000f7
:100e0400ffff0000ffff0000ffff0000ffff0000e6
:100e1400ffff0000ffff0000ffff0000ffff0000d6
:100e2400ffff0000ffff0000ffff0000ffff0000c6
:100e3400ffff0000ffff0000ffff0000ffff0000b6
:100e4400ffff0000ffff0000ffff0000ffff0000a6
:100e5400ffff0000ffff0000ffff0000ffff000096
:100e6400ffff0000ffff0000ffff0000ffff000086
:100e7400ffff0000ffff0000ffff0000ffff000076
:100e8400ffff0000ffff0000ffff0000ffff000066
:100e9400ffff0000ffff0000ffff0000ffff000056
:100ea400ffff0000ffff0000ffff0000ffff000046
:100eb400ffff0000ffff0000ffff0000ffff000036
:100ec400ffff0000ffff0000ffff0000ffff000026
:100ed400ffff0000ffff0000ffff0000ffff000016
:100ee400ffff0000ffff0000ffff0000ffff000006
:100ef400ffff0000ffff0000ffff0000ffff0000f6
:100f0400ffff0000ffff0000ffff0000ffff0000e5
:100f1400ffff0000ffff000092cc00000070000003
:100f240000680000289a00003cf70000ffff000062
:100f3400a699000082780000249100009eff000022
:100f4400ffff0000ffff0000ffff0000ffff0000a5
:100f5400ffff0000ffff0000ffff0000ffff000095
:100f6400ffff0000ffff0000ffff0000ffff000085
:100f7400ffff0000ffff0000ffff0000ffff000075
:100f8400ffff0000ffff0000ffff0000ffff000065
:100f9400ffff0000ffff0000ffff0000ffff000055
:100fa400ffff0000ffff0000ffff0000ffff000045
:100fb400ffff0000ffff0000ffff0000ffff000035
:100fc400ffff0000ffff0000ffff0000ffff000025
:100fd400ffff0000ffff0000ffff0000ffff000015
:100fe400ffff0000ffff0000ffff0000ffff000005
:100ff400ffff0000ffff0000ffff0000ffff0000f5
:10100400ffff0000ffff0000ffff0000ffff0000e4
:10101400ffff0000ffff0000ffff0000ffff0000d4
:10102400ffff0000ffff0000ffff0000ffff0000c4
:10103400ffff0000ffff0000ffff0000ffff0000b4
:10104400ffff0000ffff0000ffff0000ffff0000a4
:10105400ffff0000ffff0000ffff0000ffff000094
:10106400ffff0000ffff0000ffff0000ffff000084
:10107400ffff0000ffff0000ffff0000ffff000074
:10108400ffff0000ffff0000ffff0000ffff000064
:10109400ffff0000ffff0000ffff0000ffff000054
:1010a400ffff000096dd0000a28000000068000041
:1010b4008eb30000dfff0000ffff0000ffff000011
:1010c4006589000086810000e38800009eff00001f
:1010d400ffff0000ffff0000ffff0000ffff000014
:1010e400ffff0000ffff0000ffff0000ffff000004
:1010f400ffff0000ffff0000ffff0000ffff0000f4
:10110400ffff0000ffff0000ffff0000ffff0000e3
:10111400ffff0000ffff0000ffff0000ffff0000d3
:10112400ffff0000ffff0000ffff0000ffff0000c3
:10113400ffff0000ffff0000ffff0000ffff0000b3
:10114400ffff0000ffff0000ffff0000ffff0000a3
:10115400ffff0000ffff0000ffff0000ffff000093
:10116400ffff0000ffff0000ffff0000ffff000083
:10117400ffff0000ffff0000ffff0000ffff000073
:10118400ffff0000ffff0000ffff0000ffff000063
:10119400ffff0000ffff0000ffff0000ffff000053
:1011a400ffff0000ffff0000ffff0000ffff000043
:1011b400ffff0000ffff0000ffff0000ffff000033
:1011c400ffff0000ffff0000ffff0000ffff000023
:1011d400ffff0000ffff0000ffff0000ffff000013
:1011e400ffff0000ffff0000ffff0000ffff000003
:1011f400ffff0000ffff0000ffff0000ffff0000f3
:10120400ffff0000ffff0000ffff0000ffff0000e2
:10121400ffff0000ffff0000ffff0000ffff0000d2
:10122400ffff0000ffff0000ffff0000ffff0000c2
:10123400baee0000a691000000680000efbb0000b9
:10124400ffff0000ffff00005de7000018c600007c
:10125400a28000008a920000618000007df70000f7
:10126400ffff0000ffff0000ffff0000ffff000082
:10127400ffff0000ffff0000ffff0000ffff000072
:10128400ffff0000ffff0000ffff0000ffff000062
:10129400ffff0000ffff0000ffff0000ffff000052
:1012a400ffff0000ffff0000ffff0000ffff000042
:1012b400ffff0000ffff0000ffff0000ffff000032
:1012c400ffff0000ffff0000ffff0000ffff000022
:1012d400ffff0000ffff0000ffff0000ffff000012
:1012e400ffff0000ffff0000ffff0000ffff000002
:1012f400ffff0000ffff0000ffff0000ffff0000f2
:10130400ffff0000ffff0000ffff0000ffff0000e1
:10131400ffff0000ffff0000ffff0000ffff0000d1
:10132400ffff0000ffff0000ffff0000ffff0000c1
:10133400ffff0000ffff0000ffff0000ffff0000b1
:10134400ffff0000ffff0000ffff0000ffff0000a1
:10135400ffff0000ffff0000ffff0000ffff000091
:10136400ffff0000ffff0000ffff0000ffff000081
:10137400ffff0000ffff0000ffff0000ffff000071
:10138400ffff0000ffff0000ffff0000ffff000061
:10139400ffff0000ffff0000ffff0000ffff000051
:1013a400ffff0000ffff0000ffff0000ffff000041
:1013b400ffff0000ffff0000ffff0000dfff000051
:1013c4006db30000006800004dab00009ef7000004
:1013d400bef7000018c60000b6ad000013ad000053
:1013e400627800004d9b0000007800007df700004b
:1013f400ffff0000ffff0000ffff0000ffff0000f1
:10140400ffff0000ffff0000ffff0000ffff0000e0
:10141400ffff0000ffff0000ffff0000ffff0000d0
:10142400ffff0000ffff0000ffff0000ffff0000c0
:10143400ffff0000ffff0000ffff0000ffff0000b0
:10144400ffff0000ffff0000ffff0000ffff0000a0
:10145400ffff0000ffff0000ffff0000ffff000090
:10146400ffff0000ffff0000ffff0000ffff000080
:10147400ffff0000ffff0000ffff0000ffff000070
:10148400ffff0000ffff0000ffff0000ffff000060
:10149400ffff0000ffff0000ffff0000ffff000050
:1014a400ffff0000ffff0000ffff0000ffff000040
:1014b400ffff0000ffff0000ffff0000ffff000030
:1014c400ffff0000ffff0000ffff0000ffff000020
:1014d400ffff0000ffff0000ffff0000ffff000010
:1014e400ffff0000ffff0000ffff0000ffff000000
:1014f400ffff0000ffff0000ffff0000ffff0000f0
:10150400ffff0000ffff0000ffff0000ffff0000df
:10151400ffff0000ffff0000ffff0000ffff0000cf
:10152400ffff0000ffff0000ffff0000ffff0000bf
:10153400ffff0000ffff0000ffff0000ffff0000af
:10154400ffff0000ffff0000ffff000075d5000053
:1015540000700000a6910000dbee00007def0000ab
:10156400b6b50000b6ad000055ad00002c9b0000e0
:10157400007800008ea30000007000003cf700001b
:10158400ffff0000ffff0000ffff0000ffff00005f
:10159400ffff0000ffff0000ffff0000ffff00004f
:1015a400ffff0000ffff0000ffff0000ffff00003f
:1015b400ffff0000ffff0000ffff0000ffff00002f
:1015c400ffff0000ffff0000ffff0000ffff00001f
:1015d400ffff0000ffff0000ffff0000ffff00000f
:1015e400ffff0000ffff0000ffff0000ffff0000ff
:1015f400ffff0000ffff0000ffff0000ffff0000ef
:10160400ffff0000ffff0000ffff0000ffff0000de
:10161400ffff0000ffff0000ffff0000ffff0000ce
:10162400ffff0000ffff0000ffff0000ffff0000be
:10163400ffff0000ffff0000ffff0000ffff0000ae
:10164400ffff0000ffff0000ffff0000ffff00009e
:10165400ffff0000ffff0000ffff0000ffff00008e
:10166400ffff0000ffff0000ffff0000ffff00007e
:10167400ffff0000ffff0000ffff0000ffff00006e
:10168400ffff0000ffff0000ffff0000ffff00005e
:10169400ffff0000ffff0000ffff0000ffff00004e
:1016a400ffff0000ffff0000ffff0000ffff00003e
:1016b400ffff0000ffff0000ffff0000ffff00002e
:1016c400ffff0000ffff0000ffff0000ffff00001e
:1016d400ffff0000ffff00003cf70000499a0000f4
:1016e4004170000075d50000beef000096b5000003
:1016f400d6b50000d3ac0000658900000078000076
:1017040000700000aea3000061780000b6dd0000a8
:10171400ffff0000ffff0000ffff0000ffff0000cd
:10172400ffff0000ffff0000ffff0000ffff0000bd
:10173400ffff0000ffff0000ffff0000ffff0000ad
:10174400ffff0000ffff0000ffff0000ffff00009d
:10175400ffff0000ffff0000ffff0000ffff00008d
:10176400ffff0000ffff0000ffff0000ffff00007d
:10177400ffff0000ffff0000ffff0000ffff00006d
:10178400ffff0000ffff0000ffff0000ffff00005d
:10179400ffff0000ffff0000ffff0000ffff00004d
:1017a400ffff0000ffff0000ffff0000ffff00003d
:1017b400ffff0000ffff0000ffff0000ffff00002d
:1017c400ffff0000ffff0000ffff0000ffff00001d
:1017d400ffff0000ffff0000ffff0000ffff00000d
:1017e400ffff0000ffff0000ffff0000ffff0000fd
:1017f400ffff0000ffff0000ffff0000ffff0000ed
:10180400ffff0000ffff0000ffff0000ffff0000dc
:10181400ffff0000ffff0000ffff0000ffff0000cc
:10182400ffff0000ffff0000ffff0000ffff0000bc
:10183400ffff0000ffff0000ffff0000ffff0000ac
:10184400ffff0000ffff0000ffff0000ffff00009c
:10185400ffff0000ffff0000ffff0000ffff00008c
:10186400ffff0000ffff000014cd0000006800002f
:10187400aeb30000dff70000d7bd0000b6ad000036
:10188400f3ac000004890000007800000078000038
:1018940000780000e7910000868900006db3000025
:1018a400ffff0000ffff0000ffff0000ffff00003c
:1018b400ffff0000ffff0000ffff0000ffff00002c
:1018c400ffff0000ffff0000ffff0000ffff00001c
:1018d400ffff0000ffff0000ffff0000ffff00000c
:1018e400ffff0000ffff0000ffff0000ffff0000fc
:1018f400ffff0000ffff0000ffff0000ffff0000ec
:10190400ffff0000ffff0000ffff0000ffff0000db
:10191400ffff0000ffff0000ffff0000ffff0000cb
:10192400ffff0000ffff0000ffff0000ffff0000bb
:10193400ffff0000ffff0000ffff0000ffff0000ab
:10194400ffff0000ffff0000ffff0000ffff00009b
:10195400ffff0000ffff0000ffff0000ffff00008b
:10196400ffff0000ffff0000ffff0000ffff00007b
:10197400ffff0000ffff0000ffff0000ffff00006b
:10198400ffff0000ffff0000ffff0000ffff00005b
:10199400ffff0000ffff0000ffff0000ffff00004b
:1019a400ffff0000ffff0000ffff0000ffff00003b
:1019b400ffff0000ffff0000ffff0000ffff00002b
:1019c400ffff0000ffff0000ffff0000ffff00001b
:1019d400ffff0000ffff0000ffff0000ffff00000b
:1019e400ffff0000ffff0000ffff0000ffff0000fb
:1019f400ffff00003cf70000089a0000248100006b
:101a040059de000079ce000096ad000095b50000c7
:101a1400e7910000007800000078000000800000da
:101a24000078000000780000a2800000a288000076
:101a3400dfff0000ffff0000ffff0000ffff0000ca
:101a4400ffff0000ffff0000ffff0000ffff00009a
:101a5400ffff0000ffff0000ffff0000ffff00008a
:101a6400ffff0000ffff0000ffff0000ffff00007a
:101a7400ffff0000ffff0000ffff0000ffff00006a
:101a8400ffff0000ffff0000ffff0000ffff00005a
:101a9400ffff0000ffff0000ffff0000ffff00004a
:101aa400ffff0000ffff0000ffff0000ffff00003a
:101ab400ffff0000ffff0000ffff0000ffff00002a
:101ac400ffff0000ffff0000ffff0000ffff00001a
:101ad400ffff0000ffff0000ffff0000ffff00000a
:101ae400ffff0000ffff0000ffff0000ffff0000fa
:101af400ffff0000ffff0000ffff0000ffff0000ea
:101b0400ffff0000ffff0000ffff0000ffff0000d9
:101b1400ffff0000ffff0000ffff0000ffff0000c9
:101b2400ffff0000ffff0000ffff0000ffff0000b9
:101b3400ffff0000ffff0000ffff0000ffff0000a9
:101b4400ffff0000ffff0000ffff0000ffff000099
:101b5400ffff0000ffff0000ffff0000ffff000089
:101b6400ffff0000ffff0000ffff0000ffff000079
:101b7400ffff0000ffff0000ffff0000ffff000069
:101b8400ffff0000b6dd000000700000aeb30000ef
:101b94005ddf000055ad0000f7b500006d9b00004f
:101ba4002078000000780000008000000080000021
:101bb4000078000000700000007000000070000059
:101bc400dfff0000ffff0000ffff0000ffff000039
:101bd400ffff0000ffff0000ffff0000ffff000009
:101be400ffff0000ffff0000ffff0000ffff0000f9
:101bf400ffff0000ffff0000ffff0000ffff0000e9
:101c0400ffff0000ffff0000ffff0000ffff0000d8
:101c1400ffff0000ffff0000ffff0000ffff0000c8
:101c2400ffff0000ffff0000ffff0000ffff0000b8
:101c3400ffff0000ffff0000ffff0000ffff0000a8
:101c4400ffff0000ffff0000ffff0000ffff000098
:101c5400ffff0000ffff0000ffff0000ffff000088
:101c6400ffff0000ffff0000ffff0000ffff000078
:101c7400ffff0000ffff0000ffff0000ffff000068
:101c8400ffff0000ffff0000ffff0000ffff000058
:101c9400ffff0000ffff0000ffff0000ffff000048
:101ca400ffff0000ffff0000ffff0000ffff000038
:101cb400ffff0000ffff0000ffff0000ffff000028
:101cc400ffff0000ffff0000ffff0000ffff000018
:101cd400ffff0000ffff0000ffff0000ffff000008
:101ce400ffff0000ffff0000ffff0000ffff0000f8
:101cf400ffff0000ffff0000ffff0000ffff0000e8
:101d0400ffff0000ffff0000ffff0000ffff0000d7
:101d14009eff00004dab0000e3800000f7d50000fb
:101d2400f7b50000d6b50000f3ac0000458900000b
:101d340000780000008000000078000000700000bf
:101d440004890000aebb000092cc0000b2cc0000bd
:101d5400ffff0000ffff0000ffff0000ffff000087
:101d6400ffff0000ffff0000ffff0000ffff000077
:101d7400ffff0000ffff0000ffff0000ffff000067
:101d8400ffff0000ffff0000ffff0000ffff000057
:101d9400ffff0000ffff0000ffff0000ffff000047
:101da400ffff0000ffff0000ffff0000ffff000037
:101db400ffff0000ffff0000ffff0000ffff000027
:101dc400ffff0000ffff0000ffff0000ffff000017
:101dd400ffff0000ffff0000ffff0000ffff000007
:101de400ffff0000ffff0000ffff0000ffff0000f7
:101df400ffff0000ffff0000ffff0000ffff0000e7
:101e0400ffff0000ffff0000ffff0000ffff0000d6
:101e1400ffff0000ffff0000ffff0000ffff0000c6
:101e2400ffff0000ffff0000ffff0000ffff0000b6
:101e3400ffff0000ffff0000ffff0000ffff0000a6
:101e4400ffff0000ffff0000ffff0000ffff000096
:101e5400ffff0000ffff0000ffff0000ffff000086
:101e6400ffff0000ffff0000ffff0000ffff000076
:101e7400ffff0000ffff0000ffff0000ffff000066
:101e8400ffff0000ffff0000ffff0000ffff000056
:101e9400ffff0000ffff0000ffff0000ffff000046
:101ea4009aee0000208000008a9a0000fbce000019
:101eb40054ad000018be00008e9b000000780000a6
:101ec400007800000078000000700000aaa2000062
:101ed40018de0000ffff0000ffff0000ffff00000e
:101ee400ffff0000ffff0000ffff0000ffff0000f6
:101ef400ffff0000ffff0000ffff0000ffff0000e6
:101f0400ffff0000ffff0000ffff0000ffff0000d5
:101f1400ffff0000ffff0000ffff0000ffff0000c5
:101f2400ffff0000ffff0000ffff0000ffff0000b5
:101f3400ffff0000ffff0000ffff0000ffff0000a5
:101f4400ffff0000ffff0000ffff0000ffff000095
:101f5400ffff0000ffff0000ffff0000ffff000085
:101f6400ffff0000ffff0000ffff0000ffff000075
:101f7400ffff0000ffff0000ffff0000ffff000065
:101f8400ffff0000ffff0000ffff0000ffff000055
:101f9400ffff0000ffff0000ffff0000ffff000045
:101fa400ffff0000ffff0000ffff0000ffff000035
:101fb400ffff0000ffff0000ffff0000ffff000025
:101fc400ffff0000ffff0000ffff0000ffff000015
:101fd400ffff0000ffff0000ffff0000ffff000005
:101fe400ffff0000ffff0000ffff0000ffff0000f5
:101ff400ffff0000ffff0000ffff0000ffff0000e5
:10200400ffff0000ffff0000ffff0000ffff0000d4
:10201400ffff0000ffff0000ffff0000ffff0000c4
:10202400ffff0000ffff0000ffff0000ffff0000b4
:10203400b6d500000070000071b4000038be000086
:1020440096b5000092ac000065890000007800009d
:1020540000780000007000000cb300007df7000061
:10206400ffff0000ffff0000ffff0000ffff000074
:10207400ffff0000ffff0000ffff0000ffff000064
:10208400ffff0000ffff0000ffff0000ffff000054
:10209400ffff0000ffff0000ffff0000ffff000044
:1020a400ffff0000ffff0000ffff0000ffff000034
:1020b400ffff0000ffff0000ffff0000ffff000024
:1020c400ffff0000ffff0000ffff0000ffff000014
:1020d400ffff0000ffff0000ffff0000ffff000004
:1020e400ffff0000ffff0000ffff0000ffff0000f4
:1020f400ffff0000ffff0000ffff0000ffff0000e4
:10210400ffff0000ffff0000ffff0000ffff0000d3
:10211400ffff0000ffff0000ffff0000ffff0000c3
:10212400ffff0000ffff0000ffff0000ffff0000b3
:10213400ffff0000ffff0000ffff0000ffff0000a3
:10214400ffff0000ffff0000ffff0000ffff000093
:10215400ffff0000ffff0000ffff0000ffff000083
:10216400ffff0000ffff0000ffff0000ffff000073
:10217400ffff0000ffff0000ffff0000ffff000063
:10218400ffff0000ffff0000ffff0000ffff000053
:10219400ffff0000ffff0000ffff0000ffff000043
:1021a400ffff0000ffff0000ffff0000ffff000033
:1021b400ffff0000ffff0000ffff00009eff000084
:1021c4004db30000c3780000b6bd0000b6b50000f2
:1021d40017b60000cea300000078000000780000cd
:1021e4000070000069a200005df70000ffff00001e
:1021f400ffff0000ffff0000ffff0000ffff0000e3
:10220400ffff0000ffff0000ffff0000ffff0000d2
:10221400ffff0000ffff0000ffff0000ffff0000c2
:10222400ffff0000ffff0000ffff0000ffff0000b2
:10223400ffff0000ffff0000ffff0000ffff0000a2
:10224400ffff0000ffff0000ffff0000ffff000092
:10225400ffff0000ffff0000ffff0000ffff000082
:10226400ffff0000ffff0000ffff0000ffff000072
:10227400ffff0000ffff0000ffff0000ffff000062
:10228400ffff0000ffff0000ffff0000ffff000052
:10229400ffff0000ffff0000ffff0000ffff000042
:1022a400ffff0000ffff0000ffff0000ffff000032
:1022b400ffff0000ffff0000ffff0000ffff000022
:1022c400ffff0000ffff0000ffff0000ffff000012
:1022d400ffff0000ffff0000ffff0000ffff000002
:1022e400ffff0000ffff0000ffff0000ffff0000f2
:1022f400ffff0000ffff0000ffff0000ffff0000e2
:10230400ffff0000ffff0000ffff0000ffff0000d1
:10231400ffff0000ffff0000ffff0000ffff0000c1
:10232400ffff0000ffff0000ffff0000ffff0000b1
:10233400ffff0000ffff0000ffff0000ffff0000a1
:10234400ffff0000ffff0000ffff0000fbee0000a6
:10235400418000006589000038be000096b5000089
:1023640018be00004d9b00000078000000780000bb
:102374004178000096d50000ffff0000ffff000039
:10238400ffff0000ffff0000ffff0000ffff000051
:10239400ffff0000ffff0000ffff0000ffff000041
:1023a400ffff0000ffff0000ffff0000ffff000031
:1023b400ffff0000ffff0000ffff0000ffff000021
:1023c400ffff0000ffff0000ffff0000ffff000011
:1023d400ffff0000ffff0000ffff0000ffff000001
:1023e400ffff0000ffff0000ffff0000ffff0000f1
:1023f400ffff0000ffff0000ffff0000ffff0000e1
:10240400ffff0000ffff0000ffff0000ffff0000d0
:10241400ffff0000ffff0000ffff0000ffff0000c0
:10242400ffff0000ffff0000ffff0000ffff0000b0
:10243400ffff0000ffff0000ffff0000ffff0000a0
:10244400ffff0000ffff0000ffff0000ffff000090
:10245400ffff0000ffff0000ffff0000ffff000080
:10246400ffff0000ffff0000ffff0000ffff000070
:10247400ffff0000ffff0000ffff0000ffff000060
:10248400ffff0000ffff0000ffff0000ffff000050
:10249400ffff0000ffff0000ffff0000ffff000040
:1024a400ffff0000ffff0000ffff0000ffff000030
:1024b400ffff0000ffff0000ffff0000ffff000020
:1024c400ffff0000ffff0000ffff0000ffff000010
:1024d400ffff0000ffff0000ffff0000baee000056
:1024e400007000000b9b000038be000095b5000092
:1024f40096b50000aa920000007800000070000069
:102504006db30000beff0000ffff0000ffff0000ee
:10251400ffff0000ffff0000ffff0000ffff0000bf
:10252400ffff0000ffff0000ffff0000ffff0000af
:10253400ffff0000ffff0000ffff0000ffff00009f
:10254400ffff0000ffff0000ffff0000ffff00008f
:10255400ffff0000ffff0000ffff0000ffff00007f
:10256400ffff0000ffff0000ffff0000ffff00006f
:10257400ffff0000ffff0000ffff0000ffff00005f
:10258400ffff0000ffff0000ffff0000ffff00004f
:10259400ffff0000ffff0000ffff0000ffff00003f
:1025a400ffff0000ffff0000ffff0000ffff00002f
:1025b400ffff0000ffff0000ffff0000ffff00001f
:1025c400ffff0000ffff0000ffff0000ffff00000f
:1025d400ffff0000ffff0000ffff0000ffff0000ff
:1025e400ffff0000ffff0000ffff0000ffff0000ef
:1025f400ffff0000ffff0000ffff0000ffff0000df
:10260400ffff0000ffff0000ffff0000ffff0000ce
:10261400ffff0000ffff0000ffff0000ffff0000be
:10262400ffff0000ffff0000ffff0000ffff0000ae
:10263400ffff0000ffff0000ffff0000ffff00009e
:10264400ffff0000ffff0000ffff0000ffff00008e
:10265400ffff0000ffff0000ffff0000ffff00007e
:10266400ffff0000ffff0000ffff000055d5000042
:102674000068000071ac000018be0000b2ac00009d
:102684002c9b0000e789000000780000007800001f
:1026940034d50000ffff0000ffff0000ffff000033
:1026a400ffff0000ffff0000ffff0000ffff00002e
:1026b400ffff0000ffff0000ffff0000ffff00001e
:1026c400ffff0000ffff0000ffff0000ffff00000e
:1026d400ffff0000ffff0000ffff0000ffff0000fe
:1026e400ffff0000ffff0000ffff0000ffff0000ee
:1026f400ffff0000ffff0000ffff0000ffff0000de
:10270400ffff0000ffff0000ffff0000ffff0000cd
:10271400ffff0000ffff0000ffff0000ffff0000bd
:10272400ffff0000ffff0000ffff0000ffff0000ad
:10273400ffff0000ffff0000ffff0000ffff00009d
:10274400ffff0000ffff0000ffff0000ffff00008d
:10275400ffff0000ffff0000ffff0000ffff00007d
:10276400ffff0000ffff0000ffff0000ffff00006d
:10277400ffff0000ffff0000ffff0000ffff00005d
:10278400ffff0000ffff0000ffff0000ffff00004d
:10279400ffff0000ffff0000ffff0000ffff00003d
:1027a400ffff0000ffff0000ffff0000ffff00002d
:1027b400ffff0000ffff0000ffff0000ffff00001d
:1027c400ffff0000ffff0000ffff0000ffff00000d
:1027d400ffff0000ffff0000ffff0000ffff0000fd
:1027e400ffff0000ffff0000ffff0000ffff0000ed
:1027f400ffff0000ffff0000dfff00008eb30000ba
:1028040082700000b6b50000d7b5000075b50000b1
:102814008a9200000078000000700000c799000050
:102824009aee0000ffff0000ffff0000ffff000022
:10283400ffff0000ffff0000ffff0000ffff00009c
:10284400ffff0000ffff0000ffff0000ffff00008c
:10285400ffff0000ffff0000ffff0000ffff00007c
:10286400ffff0000ffff0000ffff0000ffff00006c
:10287400ffff0000ffff0000ffff0000ffff00005c
:10288400ffff0000ffff0000ffff0000ffff00004c
:10289400ffff0000ffff0000ffff0000ffff00003c
:1028a400ffff0000ffff0000ffff0000ffff00002c
:1028b400ffff0000ffff0000ffff0000ffff00001c
:1028c400ffff0000ffff0000ffff0000ffff00000c
:1028d400ffff0000ffff0000ffff0000ffff0000fc
:1028e400ffff0000ffff0000ffff0000ffff0000ec
:1028f400ffff0000ffff0000ffff0000ffff0000dc
:10290400ffff0000ffff0000ffff0000ffff0000cb
:10291400ffff0000ffff0000ffff0000ffff0000bb
:10292400ffff0000ffff0000ffff0000ffff0000ab
:10293400ffff0000ffff0000ffff0000ffff00009b
:10294400ffff0000ffff0000ffff0000ffff00008b
:10295400ffff0000ffff0000ffff0000ffff00007b
:10296400ffff0000ffff0000ffff0000ffff00006b
:10297400ffff0000ffff0000ffff0000ffff00005b
:10298400ffff0000ffff00009ef70000e799000032
:10299400e378000099be000095b50000f7b500008b
:1029a40071a40000a2800000007000004dab000084
:1029b4009eff0000ffff0000ffff0000ffff00007c
:1029c400ffff0000ffff0000ffff0000ffff00000b
:1029d400ffff0000ffff0000ffff0000ffff0000fb
:1029e400ffff0000ffff0000ffff0000ffff0000eb
:1029f400ffff0000ffff0000ffff0000ffff0000db
:102a0400ffff0000ffff0000ffff0000ffff0000ca
:102a1400ffff0000ffff0000ffff0000ffff0000ba
:102a2400ffff0000ffff0000ffff0000ffff0000aa
:102a3400ffff0000ffff0000ffff0000ffff00009a
:102a4400ffff0000ffff0000ffff0000ffff00008a
:102a5400ffff0000ffff0000ffff0000ffff00007a
:102a6400ffff0000ffff0000ffff0000ffff00006a
:102a7400ffff0000ffff0000ffff0000ffff00005a
:102a8400ffff0000ffff0000ffff0000ffff00004a
:102a9400ffff0000ffff0000ffff0000ffff00003a
:102aa400ffff0000ffff0000ffff0000ffff00002a
:102ab400ffff0000ffff0000ffff0000ffff00001a
:102ac400ffff0000ffff0000ffff0000ffff00000a
:102ad400ffff0000ffff0000ffff0000ffff0000fa
:102ae400ffff0000ffff0000ffff0000ffff0000ea
:102af400ffff0000ffff0000ffff0000ffff0000da
:102b0400ffff0000ffff0000ffff0000ffff0000c9
:102b1400ffff0000ffff00003cf7000041800000c1
:102b2400c789000079be000096b5000018b6000001
:102b340051a40000828000000070000010bc00005e
:102b4400ffff0000ffff0000ffff0000ffff000089
:102b5400ffff0000ffff0000ffff0000ffff000079
:102b6400ffff0000ffff0000ffff0000ffff000069
:102b7400ffff0000ffff0000ffff0000ffff000059
:102b8400ffff0000ffff0000ffff0000ffff000049
:102b9400ffff0000ffff0000ffff0000ffff000039
:102ba400ffff0000ffff0000ffff0000ffff000029
:102bb400ffff0000ffff0000ffff0000ffff000019
:102bc400ffff0000ffff0000ffff0000ffff000009
:102bd400ffff0000ffff0000ffff0000ffff0000f9
:102be400ffff0000ffff0000ffff0000ffff0000e9
:102bf400ffff0000ffff0000ffff0000ffff0000d9
:102c0400ffff0000ffff0000ffff0000ffff0000c8
:102c1400ffff0000ffff0000ffff0000ffff0000b8
:102c2400ffff0000ffff0000ffff0000ffff0000a8
:102c3400ffff0000ffff0000ffff0000ffff000098
:102c4400ffff0000ffff0000ffff0000ffff000088
:102c5400ffff0000ffff0000ffff0000ffff000078
:102c6400ffff0000ffff0000ffff0000ffff000068
:102c7400ffff0000ffff0000ffff0000ffff000058
:102c8400ffff0000ffff0000ffff0000ffff000048
:102c9400ffff0000ffff0000ffff0000ffff000038
:102ca400ffff0000ffff00001cf700000078000099
:102cb400cb9a000059be000034ad0000d7b5000027
:102cc40055b50000a28000000070000071c400002f
:102cd400ffff0000ffff0000ffff0000ffff0000f8
:102ce400ffff0000ffff0000ffff0000ffff0000e8
:102cf400ffff0000ffff0000ffff0000ffff0000d8
:102d0400ffff0000ffff0000ffff0000ffff0000c7
:102d1400ffff0000ffff0000ffff0000ffff0000b7
:102d2400ffff0000ffff0000ffff0000ffff0000a7
:102d3400ffff0000ffff0000ffff0000ffff000097
:102d4400ffff0000ffff0000ffff0000ffff000087
:102d5400ffff0000ffff0000ffff0000ffff000077
:102d6400ffff0000ffff0000ffff0000ffff000067
:102d7400ffff0000ffff0000ffff0000ffff000057
:102d8400ffff0000ffff0000ffff0000ffff000047
:102d9400ffff0000ffff0000ffff0000ffff000037
:102da400ffff0000ffff0000ffff0000ffff000027
:102db400ffff0000ffff0000ffff0000ffff000017
:102dc400ffff0000ffff0000ffff0000ffff000007
:102dd400ffff0000ffff0000ffff0000ffff0000f7
:102de400ffff0000ffff0000ffff0000ffff0000e7
:102df400ffff0000ffff0000ffff0000ffff0000d7
:102e0400ffff0000ffff0000ffff0000ffff0000c6
:102e1400ffff0000ffff0000ffff0000ffff0000b6
:102e2400ffff0000ffff0000ffff0000ffff0000a6
:102e3400ffff0000ffff0000fbf600000070000031
:102e44008e9b000038be000095b50000699200001a
:102e540000700000007800000070000071c40000e1
:102e6400ffff0000ffff0000ffff0000ffff000066
:102e7400ffff0000ffff0000ffff0000ffff000056
:102e8400ffff0000ffff0000ffff0000baee00009c
:102e940055d5000055d50000fbf60000ffff0000eb
:102ea400ffff0000ffff0000ffff0000ffff000026
:102eb400ffff0000ffff0000ffff0000ffff000016
:102ec400ffff0000ffff0000ffff0000ffff000006
:102ed400ffff0000ffff0000ffff0000ffff0000f6
:102ee400ffff0000ffff0000ffff0000ffff0000e6
:102ef400ffff0000ffff0000ffff0000ffff0000d6
:102f0400ffff0000ffff0000ffff0000ffff0000c5
:102f1400ffff0000ffff0000ffff0000ffff0000b5
:102f2400ffff0000ffff0000ffff0000ffff0000a5
:102f3400ffff0000ffff0000ffff0000ffff000095
:102f4400ffff0000ffff0000ffff0000ffff000085
:102f5400ffff0000ffff0000ffff0000ffff000075
:102f6400ffff0000ffff0000ffff0000ffff000065
:102f7400ffff0000ffff0000ffff0000ffff000055
:102f8400ffff0000ffff0000ffff0000ffff000045
:102f9400ffff0000ffff0000ffff0000ffff000035
:102fa400ffff0000ffff0000ffff0000ffff000025
:102fb400ffff0000ffff0000ffff0000ffff000015
:102fc400ffff0000ffff0000baee000000700000e9
:102fd40030a40000f7b50000b6b5000038be00000c
:102fe40030a400008280000000700000efbb0000ed
:102ff400ffff0000ffff0000ffff0000ffff0000d5
:10300400ffff0000ffff0000ffff0000ffff0000c4
:1030140079e6000004910000005800000060000000
:103024000068000000680000006000000068000004
:1030340071cc0000ffff0000ffff0000ffff000055
:10304400ffff0000ffff0000ffff0000ffff000084
:10305400ffff0000ffff0000ffff0000ffff000074
:10306400ffff0000ffff0000ffff0000ffff000064
:10307400ffff0000ffff0000ffff0000ffff000054
:10308400ffff0000ffff0000ffff0000ffff000044
:10309400ffff0000ffff0000ffff0000ffff000034
:1030a400ffff0000ffff0000ffff0000ffff000024
:1030b400ffff0000ffff0000ffff0000ffff000014
:1030c400ffff0000ffff0000ffff0000ffff000004
:1030d400ffff0000ffff0000ffff0000ffff0000f4
:1030e400ffff0000ffff0000ffff0000ffff0000e4
:1030f400ffff0000ffff0000ffff0000ffff0000d4
:10310400ffff0000ffff0000ffff0000ffff0000c3
:10311400ffff0000ffff0000ffff0000ffff0000b3
:10312400ffff0000ffff0000ffff0000ffff0000a3
:10313400ffff0000ffff0000ffff0000ffff000093
:10314400ffff0000ffff0000ffff0000ffff000083
:10315400ffff0000ffff00009aee00000070000077
:1031640091ac0000f7b5000095b50000d7b500009c
:1031740075b500000892000000700000699a000014
:103184001cef0000ffff0000ffff0000ffff000036
:10319400ffff0000ffff00009aee0000828800009d
:1031a400006000000070000000700000007000006b
:1031b400006800000068000000700000007000005b
:1031c4000068000086990000ffff0000ffff000078
:1031d400ffff0000ffff0000ffff0000ffff0000f3
:1031e400ffff0000ffff0000ffff0000ffff0000e3
:1031f400ffff0000ffff0000ffff0000ffff0000d3
:10320400ffff0000ffff0000ffff0000ffff0000c2
:10321400ffff0000ffff0000ffff0000ffff0000b2
:10322400ffff0000ffff0000ffff0000ffff0000a2
:10323400ffff0000ffff0000ffff0000ffff000092
:10324400ffff0000ffff0000ffff0000ffff000082
:10325400ffff0000ffff0000ffff0000ffff000072
:10326400ffff0000ffff0000ffff0000ffff000062
:10327400ffff0000ffff0000ffff0000ffff000052
:10328400ffff0000ffff0000ffff0000ffff000042
:10329400ffff0000ffff0000ffff0000ffff000032
:1032a400ffff0000ffff0000ffff0000ffff000022
:1032b400ffff0000ffff0000ffff0000ffff000012
:1032c400ffff0000ffff0000ffff0000ffff000002
:1032d400ffff0000ffff0000ffff0000ffff0000f2
:1032e400ffff0000ffff000079e60000007000000f
:1032f40092ac0000f7b5000096b50000b6b500002a
:10330400d7b50000cb9a00000078000000700000e0
:1033140071c40000ffff0000ffff0000ffff00007a
:10332400beff000049a20000006800000070000019
:103334000070000000780000efbb00009ef7000062
:10334400ffff0000ffff0000d7d500002489000024
:103354000068000000680000a6990000ffff00005c
:10336400ffff0000ffff0000ffff0000ffff000061
:10337400ffff0000ffff0000ffff0000ffff000051
:10338400ffff0000ffff0000ffff0000ffff000041
:10339400ffff0000ffff0000ffff0000ffff000031
:1033a400ffff0000ffff0000ffff0000ffff000021
:1033b400ffff0000ffff0000ffff0000ffff000011
:1033c400ffff0000ffff0000ffff0000ffff000001
:1033d400ffff0000ffff0000ffff0000ffff0000f1
:1033e400ffff0000ffff0000ffff0000ffff0000e1
:1033f400ffff0000ffff0000ffff0000ffff0000d1
:10340400ffff0000ffff0000ffff0000ffff0000c0
:10341400ffff0000ffff0000ffff0000ffff0000b0
:10342400ffff0000ffff0000ffff0000ffff0000a0
:10343400ffff0000ffff0000ffff0000ffff000090
:10344400ffff0000ffff0000ffff0000ffff000080
:10345400ffff0000ffff0000ffff0000ffff000070
:10346400ffff0000ffff0000ffff0000ffff000060
:10347400ffff0000ffff00009aee00000070000054
:1034840071ac0000f7b5000096b5000096b50000d9
:10349400d7b50000eb9a0000007800000078000027
:1034a4000068000004890000ebaa00006599000090
:1034b4000068000000680000007000002080000028
:1034c400d7dd0000ffff0000ffff0000ffff00004a
:1034d400ffff0000ffff0000ffff0000ffff0000f0
:1034e400d7d500000070000000700000cbaa0000d7
:1034f400ffff0000ffff0000ffff0000ffff0000d0
:10350400ffff0000ffff0000ffff0000ffff0000bf
:10351400ffff0000ffff0000ffff0000ffff0000af
:10352400ffff0000ffff0000ffff0000ffff00009f
:10353400ffff0000ffff0000ffff0000ffff00008f
:10354400ffff0000ffff0000ffff0000ffff00007f
:10355400ffff0000ffff0000ffff0000ffff00006f
:10356400ffff0000ffff0000ffff0000ffff00005f
:10357400ffff0000ffff0000ffff0000ffff00004f
:10358400ffff0000ffff0000ffff0000ffff00003f
:10359400ffff0000ffff0000ffff0000ffff00002f
:1035a400ffff0000ffff0000ffff0000ffff00001f
:1035b400ffff0000ffff0000ffff0000ffff00000f
:1035c400ffff0000ffff0000ffff0000ffff0000ff
:1035d400ffff0000ffff0000ffff0000ffff0000ef
:1035e400ffff0000ffff0000ffff0000ffff0000df
:1035f400ffff0000ffff0000ffff0000ffff0000cf
:10360400ffff0000ffff0000dbee00000070000081
:10361400efa3000017b6000096b5000075b50000d2
:10362400aa9a00002589000045890000007800005e
:1036340000780000007000000070000000700000be
:1036440000700000617800006db30000ffff00000f
:10365400ffff0000ffff0000ffff0000ffff00006e
:10366400ffff0000ffff0000ffff0000ffff00005e
:10367400ffff000059de00000068000082780000af
:1036840055d50000ffff0000ffff0000ffff000012
:10369400ffff0000ffff0000ffff0000ffff00002e
:1036a400ffff0000ffff0000ffff0000ffff00001e
:1036b400ffff0000ffff0000ffff0000ffff00000e
:1036c400ffff0000ffff0000ffff0000ffff0000fe
:1036d400ffff0000ffff0000ffff0000ffff0000ee
:1036e400ffff0000ffff0000ffff0000ffff0000de
:1036f400ffff0000ffff0000ffff0000ffff0000ce
:10370400ffff0000ffff0000ffff0000ffff0000bd
:10371400ffff0000ffff0000ffff0000ffff0000ad
:10372400ffff0000ffff0000ffff0000ffff00009d
:10373400ffff0000ffff0000ffff0000ffff00008d
:10374400ffff0000ffff0000ffff0000ffff00007d
:10375400ffff0000ffff0000ffff0000ffff00006d
:10376400ffff0000ffff0000ffff0000ffff00005d
:10377400ffff0000ffff0000ffff0000ffff00004d
:10378400ffff0000ffff0000ffff0000ffff00003d
:10379400ffff0000ffff00001cf70000007800009e
:1037a4004c9b000038be000096b5000096b50000a2
:1037b40095b5000059be0000f3ac00000481000080
:1037c400007800000078000000780000c378000052
:1037d400089a00001cef0000ffff0000ffff00003c
:1037e400bef70000bef700009ef700009ef7000041
:1037f400bef70000dfff0000ffff0000ffff000036
:10380400ffff0000dfff000071c400000060000043
:10381400499a0000ffff0000ffff0000ffff0000c7
:10382400ffff0000ffff0000ffff0000ffff00009c
:10383400ffff0000ffff0000ffff0000ffff00008c
:10384400ffff0000ffff0000ffff0000ffff00007c
:10385400ffff0000ffff0000ffff0000ffff00006c
:10386400ffff0000ffff0000ffff0000ffff00005c
:10387400ffff0000ffff0000ffff0000ffff00004c
:10388400ffff0000ffff0000ffff0000ffff00003c
:10389400ffff0000ffff0000ffff0000ffff00002c
:1038a400ffff0000ffff0000ffff0000ffff00001c
:1038b400ffff0000ffff0000ffff0000ffff00000c
:1038c400ffff0000ffff0000ffff0000ffff0000fc
:1038d400ffff0000ffff0000ffff0000ffff0000ec
:1038e400ffff0000ffff0000ffff0000ffff0000dc
:1038f400ffff0000ffff0000ffff0000ffff0000cc
:10390400ffff0000ffff0000ffff0000ffff0000bb
:10391400ffff0000ffff0000ffff0000ffff0000ab
:10392400ffff0000ffff00003cf7000000800000e4
:103934000892000079be000095b5000096b500001d
:1039440096b5000096b5000018b600006d9b000007
:10395400289a0000e79100000cab0000dbee0000a9
:10396400ffff0000dff700007def0000bad6000083
:1039740018c60000b6b5000055ad000075ad0000d6
:10398400b6b5000059ce00005def0000dfff000077
:10399400ffff0000ffff00001cf70000c7910000bc
:1039a40020780000b2cc0000ffff0000ffff000001
:1039b400ffff0000ffff0000ffff0000ffff00000b
:1039c400ffff0000ffff0000ffff0000ffff0000fb
:1039d400ffff0000ffff0000ffff0000ffff0000eb
:1039e400ffff0000ffff0000ffff0000ffff0000db
:1039f400ffff0000ffff0000ffff0000ffff0000cb
:103a0400ffff0000ffff0000ffff0000ffff0000ba
:103a1400ffff0000ffff0000ffff0000ffff0000aa
:103a2400ffff0000ffff0000ffff0000ffff00009a
:103a3400ffff0000ffff0000ffff0000ffff00008a
:103a4400ffff0000ffff0000ffff0000ffff00007a
:103a5400ffff0000ffff0000ffff0000ffff00006a
:103a6400ffff0000ffff0000ffff0000ffff00005a
:103a7400ffff0000ffff0000ffff0000ffff00004a
:103a8400ffff0000ffff0000ffff0000ffff00003a
:103a9400ffff0000ffff0000ffff0000ffff00002a
:103aa400ffff0000ffff0000ffff0000ffff00001a
:103ab400ffff0000ffff00005df7000024910000fd
:103ac400e380000079be000096b5000096b50000c2
:103ad40096b50000b6b50000f3ac0000cfa300001b
:103ae400d7b5000075bd0000bad600007de7000020
:103af4009ad60000d6bd000034a5000034ad000005
:103b040075ad000075ad000095b5000095b50000d9
:103b140075ad000055ad000034a5000059ce00007d
:103b2400bef70000ffff0000ffff0000b6d5000055
:103b340000680000aaa20000ffff0000ffff0000d1
:103b4400ffff0000ffff0000ffff0000ffff000079
:103b5400ffff0000ffff0000ffff0000ffff000069
:103b6400ffff0000ffff0000ffff0000ffff000059
:103b7400ffff0000ffff0000ffff0000ffff000049
:103b8400ffff0000ffff0000ffff0000ffff000039
:103b9400ffff0000ffff0000ffff0000ffff000029
:103ba400ffff0000ffff0000ffff0000ffff000019
:103bb400ffff0000ffff0000ffff0000ffff000009
:103bc400ffff0000ffff0000ffff0000ffff0000f9
:103bd400ffff0000ffff0000ffff0000ffff0000e9
:103be400ffff0000ffff0000ffff0000ffff0000d9
:103bf400ffff0000ffff0000ffff0000ffff0000c9
:103c0400ffff0000ffff0000ffff0000ffff0000b8
:103c1400ffff0000ffff0000ffff0000ffff0000a8
:103c2400ffff0000ffff0000ffff0000ffff000098
:103c3400ffff0000ffff0000ffff0000ffff000088
:103c4400ffff0000ffff0000beff00000cab000000
:103c54008270000096b50000b6b5000096b500006d
:103c640096b50000b6b50000d3ac0000f3ac00007c
:103c7400d7b5000091a40000f3a4000055ad0000e6
:103c840054ad000075ad000096b5000096b5000077
:103c940096b5000096b5000096b5000096b50000f4
:103ca40096b5000096b5000095b5000054ad00002f
:103cb40017c60000ffff0000ffff0000fbee00003e
:103cc400e791000004810000f7e50000ffff000019
:103cd400ffff0000ffff0000ffff0000ffff0000e8
:103ce400ffff0000ffff0000ffff0000ffff0000d8
:103cf400ffff0000ffff0000ffff0000ffff0000c8
:103d0400ffff0000ffff0000ffff0000ffff0000b7
:103d1400ffff0000ffff0000ffff0000ffff0000a7
:103d2400ffff0000ffff0000ffff0000ffff000097
:103d3400ffff0000ffff0000ffff0000ffff000087
:103d4400ffff0000ffff0000ffff0000ffff000077
:103d5400ffff0000ffff0000ffff0000ffff000067
:103d6400ffff0000ffff0000ffff0000ffff000057
:103d7400ffff0000ffff0000ffff0000ffff000047
:103d8400ffff0000ffff0000ffff0000ffff000037
:103d9400ffff0000ffff0000ffff0000ffff000027
:103da400ffff0000ffff0000ffff0000ffff000017
:103db400ffff0000ffff0000ffff0000ffff000007
:103dc400ffff0000ffff0000ffff0000ffff0000f7
:103dd400ffff0000ffff0000ffff0000f3cc000026
:103de40000680000efa3000018b6000096b50000bc
:103df40096b5000096b50000b6b50000b6b5000053
:103e040096b5000096b5000096b5000096b5000082
:103e140096b5000096b5000096b5000096b5000072
:103e240096b5000096b5000096b5000096b5000062
:103e340096b5000096b5000096b5000095b5000053
:103e440075ad0000bad60000ffff0000ffff0000c0
:103e5400d3c400000068000010c40000ffff00008d
:103e6400ffff0000ffff0000ffff0000ffff000056
:103e7400ffff0000ffff0000ffff0000ffff000046
:103e8400ffff0000ffff0000ffff0000ffff000036
:103e9400ffff0000ffff0000ffff0000ffff000026
:103ea400ffff0000ffff0000ffff0000ffff000016
:103eb400ffff0000ffff0000ffff0000ffff000006
:103ec400ffff0000ffff0000ffff0000ffff0000f6
:103ed400ffff0000ffff0000ffff0000ffff0000e6
:103ee400ffff0000ffff0000ffff0000ffff0000d6
:103ef400ffff0000ffff0000ffff0000ffff0000c6
:103f0400ffff0000ffff0000ffff0000ffff0000b5
:103f1400ffff0000ffff0000ffff0000ffff0000a5
:103f2400ffff0000ffff0000ffff0000ffff000095
:103f3400ffff0000ffff0000ffff0000ffff000085
:103f4400ffff0000ffff0000ffff0000ffff000075
:103f5400ffff0000ffff0000ffff0000ffff000065
:103f6400ffff0000ffff0000ffff000079e60000f4
:103f7400006800004892000058be000096b500009a
:103f840096b5000096b5000096b5000096b5000001
:103f940096b5000096b5000096b5000096b50000f1
:103fa40096b5000096b5000096b5000096b50000e1
:103fb40096b5000096b5000096b5000096b50000d1
:103fc40096b5000096b5000096b5000096b50000c1
:103fd40075ad0000b6b50000bef70000ffff00009d
:103fe400d7dd000000700000eba20000ffff00001e
:103ff400ffff0000ffff0000ffff0000ffff0000c5
:10400400ffff0000ffff0000ffff0000ffff0000b4
:10401400ffff0000ffff0000ffff0000ffff0000a4
:10402400ffff0000ffff0000ffff0000ffff000094
:10403400ffff0000ffff0000ffff0000ffff000084
:10404400ffff0000ffff0000ffff0000ffff000074
:10405400ffff0000ffff0000ffff0000ffff000064
:10406400ffff0000ffff0000ffff0000ffff000054
:10407400ffff0000ffff0000ffff0000ffff000044
:10408400ffff0000ffff0000ffff0000ffff000034
:10409400ffff0000ffff0000ffff0000ffff000024
:1040a400ffff0000ffff0000ffff0000ffff000014
:1040b400ffff0000ffff0000ffff0000ffff000004
:1040c400ffff0000ffff0000ffff0000ffff0000f4
:1040d400ffff0000ffff0000ffff0000ffff0000e4
:1040e400ffff0000ffff0000ffff0000ffff0000d4
:1040f400ffff0000ffff0000ffff0000fbee0000d9
:104104000080000004810000b6b50000b6b50000d0
:1041140096b5000096b5000096b5000096b500006f
:1041240096b5000096b5000096b5000096b500005f
:1041340096b5000096b5000096b5000096b500004f
:1041440096b5000096b5000096b5000096b500003f
:1041540096b5000096b5000096b5000096b500002f
:1041640096b5000075ad000079ce0000ffff000099
:104174001cef000049920000868900009aee0000be
:10418400ffff0000ffff0000ffff0000ffff000033
:10419400ffff0000ffff0000ffff0000ffff000023
:1041a400ffff0000ffff0000ffff0000ffff000013
:1041b400ffff0000ffff0000ffff0000ffff000003
:1041c400ffff0000ffff0000ffff0000ffff0000f3
:1041d400ffff0000ffff0000ffff0000ffff0000e3
:1041e400ffff0000ffff0000ffff0000ffff0000d3
:1041f400ffff0000ffff0000ffff0000ffff0000c3
:10420400ffff0000ffff0000ffff0000ffff0000b2
:10421400ffff0000ffff0000ffff0000ffff0000a2
:10422400ffff0000ffff0000ffff0000ffff000092
:10423400ffff0000ffff0000ffff0000ffff000082
:10424400ffff0000ffff0000ffff0000ffff000072
:10425400ffff0000ffff0000ffff0000ffff000062
:10426400ffff0000ffff0000ffff0000ffff000052
:10427400ffff0000ffff0000ffff0000ffff000042
:10428400ffff0000ffff0000ffff00009eff000093
:104294006db3000000680000aea3000038b6000053
:1042a40095b5000096b5000096b5000096b50000df
:1042b40096b5000096b5000096b5000096b50000ce
:1042c40096b5000096b5000096b5000096b50000be
:1042d40096b5000096b5000096b5000096b50000ae
:1042e40096b5000096b5000096b5000096b500009e
:1042f40096b5000075ad0000d7bd0000bef7000004
:10430400ffff0000cfb300000070000014d50000d0
:10431400ffff0000ffff0000ffff0000ffff0000a1
:10432400ffff0000ffff0000ffff0000ffff000091
:10433400ffff0000ffff0000ffff0000ffff000081
:10434400ffff0000ffff0000ffff0000ffff000071
:10435400ffff0000ffff0000ffff0000ffff000061
:10436400ffff0000ffff0000ffff0000ffff000051
:10437400ffff0000ffff0000ffff0000ffff000041
:10438400ffff0000ffff0000ffff0000ffff000031
:10439400ffff0000ffff0000ffff0000ffff000021
:1043a400ffff0000ffff0000ffff0000ffff000011
:1043b400ffff0000ffff0000ffff0000ffff000001
:1043c400ffff0000ffff0000ffff0000ffff0000f1
:1043d400ffff0000ffff0000ffff0000ffff0000e1
:1043e400ffff0000ffff0000ffff0000ffff0000d1
:1043f400ffff0000ffff0000ffff0000ffff0000c1
:10440400ffff000059e60000aebb000038e60000e4
:10441400ffff0000ffff0000ffff0000ffff0000a0
:10442400d7dd000000680000a6890000d7b50000b1
:10443400b6b5000096b5000096b5000096b500002c
:1044440096b5000096b5000096b5000096b500003c
:1044540096b5000096b5000096b5000096b500002c
:1044640096b5000096b5000096b5000096b500001c
:1044740096b5000096b5000096b5000096b500000c
:1044840096b5000075b5000095b50000bad60000d9
:10449400ffff0000d3cc00000068000010bc000047
:1044a400ffff0000ffff0000ffff0000ffff000010
:1044b400ffff0000ffff0000ffff0000ffff000000
:1044c400ffff0000ffff0000ffff0000ffff0000f0
:1044d400ffff0000ffff0000ffff0000ffff0000e0
:1044e400ffff0000ffff0000ffff0000ffff0000d0
:1044f400ffff0000ffff0000ffff0000ffff0000c0
:10450400ffff0000ffff0000ffff0000ffff0000af
:10451400ffff0000ffff0000ffff0000ffff00009f
:10452400ffff0000ffff0000ffff0000ffff00008f
:10453400ffff0000ffff0000ffff0000ffff00007f
:10454400ffff0000ffff0000ffff0000ffff00006f
:10455400ffff0000ffff0000ffff0000ffff00005f
:10456400ffff0000ffff0000ffff0000ffff00004f
:10457400ffff0000ffff0000ffff0000ffff00003f
:10458400ffff0000ffff0000ffff0000d3cc00008e
:104594000cab0000869100000070000065910000e3
:1045a4008ebb00001cf70000ffff0000ffff0000af
:1045b4001cf7000065910000007000008ea300004d
:1045c40059be000096b5000096b5000096b50000ef
:1045d40096b5000096b5000096b5000096b50000ab
:1045e40096b5000096b5000096b5000096b500009b
:1045f40096b5000096b5000096b5000096b500008b
:1046040096b5000096b5000096b5000096b500007a
:1046140096b5000096b5000075ad000018c6000000
:10462400ffff000055d5000000700000aeb300008d
:10463400ffff0000ffff0000ffff0000ffff00007e
:10464400ffff0000ffff0000ffff0000ffff00006e
:10465400ffff0000ffff0000ffff0000ffff00005e
:10466400ffff0000ffff0000ffff0000ffff00004e
:10467400ffff0000ffff0000ffff0000ffff00003e
:10468400ffff0000ffff0000ffff0000ffff00002e
:10469400ffff0000ffff0000ffff0000ffff00001e
:1046a400ffff0000ffff0000ffff0000ffff00000e
:1046b400ffff0000ffff0000ffff0000ffff0000fe
:1046c400ffff0000ffff0000ffff0000ffff0000ee
:1046d400ffff0000ffff0000ffff0000ffff0000de
:1046e400ffff0000ffff0000ffff0000ffff0000ce
:1046f400ffff0000ffff0000ffff0000ffff0000be
:10470400ffff0000ffff0000ffff0000ffff0000ad
:10471400ffff0000d3cc0000aaa2000082800000aa
:1047240000680000006800000070000000680000dd
:1047340000700000c7910000aebb00009eff0000a7
:10474400ffff000014cd0000006800002481000079
:1047540014ad000018b6000095b5000096b5000031
:1047640096b5000096b5000096b5000096b5000019
:1047740096b5000096b5000096b5000096b5000009
:1047840096b5000096b5000096b5000096b50000f9
:1047940096b5000096b5000096b5000096b50000e9
:1047a40096b5000096b5000075ad0000d7bd0000b9
:1047b400dff7000096dd000000780000ebaa00009f
:1047c4009eff0000ffff0000ffff0000ffff00004e
:1047d400ffff0000ffff0000ffff0000ffff0000dd
:1047e400ffff0000ffff0000ffff0000ffff0000cd
:1047f400ffff0000ffff0000ffff0000ffff0000bd
:10480400ffff0000ffff0000ffff0000ffff0000ac
:10481400ffff0000ffff0000ffff0000ffff00009c
:10482400ffff0000ffff0000ffff0000ffff00008c
:10483400ffff0000ffff0000ffff0000ffff00007c
:10484400ffff0000ffff0000ffff0000ffff00006c
:10485400ffff0000ffff0000ffff0000ffff00005c
:10486400ffff0000ffff0000ffff0000ffff00004c
:10487400ffff0000ffff0000ffff0000ffff00003c
:10488400ffff0000ffff0000ffff0000ffff00002c
:10489400ffff0000ffff0000ffff000038e60000fc
:1048a400cba20000618000000068000000680000e6
:1048b400e388000010bc0000d7dd00004dab000011
:1048c400007000000068000000780000e79100001c
:1048d400b2cc00009eff0000ebaa000000700000b4
:1048e4000892000096b50000f7b5000095b50000e9
:1048f40096b5000096b5000096b5000096b5000088
:1049040096b5000096b5000096b5000096b5000077
:1049140096b5000096b5000096b5000096b5000067
:1049240096b5000096b5000096b5000096b5000057
:1049340096b5000096b5000075b5000095b5000069
:104944001bdf000018e60000c3880000289a00005e
:10495400dbee0000ffff0000ffff0000ffff000090
:10496400ffff0000dfff0000ffff0000ffff00006b
:10497400ffff0000ffff0000ffff0000ffff00003b
:10498400ffff0000ffff0000ffff0000ffff00002b
:10499400ffff0000ffff0000ffff0000ffff00001b
:1049a400ffff0000ffff0000ffff0000ffff00000b
:1049b400ffff0000ffff0000ffff0000ffff0000fb
:1049c400ffff0000ffff0000ffff0000ffff0000eb
:1049d400ffff0000ffff0000ffff0000ffff0000db
:1049e400ffff0000ffff0000ffff0000ffff0000cb
:1049f40038e60000d7dd00001cf70000ffff0000d0
:104a0400ffff0000ffff0000ffff0000ffff0000aa
:104a1400ffff0000ffff0000ffff0000ffff00009a
:104a2400ffff0000ffff000010c400000489000025
:104a340000700000006000006589000055d500008a
:104a44009ae60000dfff0000ffff00007df7000092
:104a5400d7dd0000089a0000006000000068000034
:104a640041800000aaa200006db300008280000013
:104a7400007800002892000096b5000038be0000bf
:104a840096b5000096b5000096b5000096b50000f6
:104a940096b5000096b5000096b5000096b50000e6
:104aa400d6b50000b2ac000095bd000096b500007c
:104ab40096b5000096b5000096b5000096b50000c6
:104ac40096b5000096b5000096b5000055ad0000ff
:104ad4009ace000079ee00008691000086910000d5
:104ae40038e60000ffff0000ffff0000ffff0000aa
:104af400ffff0000dbee0000beff0000ffff000030
:104b0400ffff0000ffff0000ffff0000ffff0000a9
:104b1400ffff0000ffff0000ffff0000ffff000099
:104b2400ffff0000ffff0000ffff0000ffff000089
:104b3400ffff0000ffff0000ffff0000ffff000079
:104b4400ffff0000ffff0000ffff0000ffff000069
:104b5400ffff0000ffff0000ffff0000ffff000059
:104b6400ffff0000ffff0000ffff0000ffff000049
:104b7400ffff0000ffff00004db300006589000047
:104b8400e3800000c380000004890000499a00000b
:104b940018e60000ffff0000ffff0000ffff000019
:104ba400ffff0000ffff0000ffff0000ffff000009
:104bb4005df70000ebaa0000007800000060000030
:104bc4008280000096d500001cef0000ffff00006b
:104bd400ffff0000ffff0000ffff0000ffff0000d9
:104be400ffff00003cf7000096d50000c3800000e2
:104bf400006000000070000082800000208000003f
:104c040000780000007800006589000092ac000084
:104c140059be000017b60000b6b5000096b50000f6
:104c240095b5000096b5000096b50000b6b5000035
:104c3400fbbe0000c380000038ce000095ad00002c
:104c440096b5000096b5000096b5000096b5000034
:104c540096b5000096b5000096b5000055ad00006d
:104c640099ce00009ae60000089a000045890000e9
:104c740096dd0000ffff0000ffff0000ffff0000c3
:104c8400b6dd0000baee0000ffff0000ffff0000e9
:104c9400ffff0000ffff0000ffff0000ffff000018
:104ca400ffff0000ffff0000ffff0000ffff000008
:104cb400ffff0000ffff0000ffff0000ffff0000f8
:104cc400ffff0000ffff0000ffff0000ffff0000e8
:104cd400ffff0000ffff0000ffff0000ffff0000d8
:104ce400ffff0000ffff0000ffff0000ffff0000c8
:104cf400ffff0000ffff0000ffff0000ffff0000b8
:104d0400dfff0000c380000000780000006800009e
:104d140000680000006000000068000000700000ef
:104d240082800000aaaa0000fbf60000ffff00003a
:104d3400ffff0000ffff0000ffff0000fbf6000084
:104d4400699a00000068000000680000aeb300002b
:104d5400dbee0000ffff0000ffff0000ffff00008c
:104d6400ffff0000ffff0000ffff0000ffff000047
:104d7400ffff0000ffff0000ffff0000fbee00004c
:104d840071c4000000780000006800000078000092
:104d940000800000007800000078000061780000c6
:104da400e791000051ac0000d7b5000038be000008
:104db40079be000059be000018be0000b6b5000060
:104dc4008a920000006800003cdf000075ad00001e
:104dd40096b5000096b5000096b5000096b50000a3
:104de40096b5000096b5000096b5000075ad0000bc
:104df40059c6000059de0000699a000024890000a9
:104e040034d50000ffff0000ffff0000ffff00009b
:104e14004db300009aee0000ffff0000ffff00000a
:104e2400ffff0000ffff0000ffff0000ffff000086
:104e3400ffff0000ffff0000ffff0000ffff000076
:104e4400ffff0000ffff0000ffff0000ffff000066
:104e5400ffff0000ffff0000ffff0000ffff000056
:104e6400ffff0000ffff0000ffff0000ffff000046
:104e7400ffff0000ffff0000ffff0000ffff000036
:104e8400ffff0000ffff0000ffff000059ee0000dd
:104e9400827800000070000000600000659100004e
:104ea400d3cc000055d500006db30000007800009d
:104eb4000060000000700000a2800000aebb000093
:104ec400dfff0000ffff00005df700008aa2000082
:104ed400006800002078000075d50000ffff000086
:104ee400ffff0000ffff0000ffff0000ffff0000c6
:104ef400ffff0000ffff0000ffff0000ffff0000b6
:104f0400ffff0000ffff0000ffff0000ffff0000a5
:104f1400ffff0000daee00008db30000007800000f
:104f2400007800000078000000780000007800009d
:104f340000780000417800008280000004890000ad
:104f44006589000045890000c38800008280000054
:104f54000078000020800000fff7000034a5000066
:104f640096b5000096b5000096b5000096b5000011
:104f740096b5000096b5000096b5000075ad00002a
:104f840058c60000d7d50000699a0000e3800000ed
:104f9400d3cc0000ffff0000ffff0000ffff000074
:104fa40069a2000059e60000ffff0000ffff0000b7
:104fb400ffff0000ffff0000ffff0000ffff0000f5
:104fc400ffff0000ffff0000ffff0000ffff0000e5
:104fd400ffff0000ffff0000ffff0000ffff0000d5
:104fe400ffff0000ffff0000ffff0000ffff0000c5
:104ff400ffff0000ffff0000ffff0000ffff0000b5
:10500400ffff0000ffff0000ffff0000ffff0000a4
:10501400ffff0000ffff000059e6000020700000c1
:1050240000680000007800009eff0000ffff000001
:10503400ffff0000ffff0000ffff00009ef70000dd
:10504400b2c400000070000000680000007000009e
:105054002489000075dd0000cfbb0000006800005b
:10506400e380000018de0000ffff0000ffff0000e7
:10507400ffff0000ffff0000ffff0000ffff000034
:10508400ffff0000ffff0000ffff0000ffff000024
:10509400ffff0000ffff0000ffff0000ffff000014
:1050a400ffff0000ffff0000f7dd000000700000bc
:1050b40082800000e38000000060000000700000b7
:1050c40000780000007800000078000000780000fc
:1050d40000780000007800000078000000780000ec
:1050e40000780000006800007de70000f7b50000cc
:1050f40096b5000096b5000096b5000096b5000080
:1051040096b5000096b5000096b5000075b5000090
:1051140038be000075cd0000e7990000e380000070
:10512400d3cc0000ffff0000ffff000055d50000b6
:1051340069a20000dbee0000ffff0000ffff00009b
:10514400ffff0000ffff0000ffff0000ffff000063
:10515400ffff0000ffff0000ffff0000ffff000053
:10516400ffff0000ffff0000ffff0000ffff000043
:10517400ffff0000ffff0000ffff0000ffff000033
:10518400ffff0000ffff0000ffff0000ffff000023
:10519400ffff0000ffff0000ffff0000ffff000013
:1051a400ffff00003cf700004170000000680000b1
:1051b40045990000fff70000b7b5000055ad0000a9
:1051c40055ad000055ad0000b6b500009def0000e0
:1051d400ffff00007df700004dab000000680000f9
:1051e400007000000078000000680000e380000008
:1051f40018de0000ffff0000ffff0000ffff0000bb
:10520400ffff0000ffff0000ffff0000ffff0000a2
:10521400ffff0000ffff0000ffff0000ffff000092
:10522400ffff0000ffff0000ffff0000ffff000082
:10523400ffff0000beff00008eab0000a689000047
:10524400beff0000ffff00007df7000049a2000040
:105254008280000082880000007000000068000066
:10526400006800000078000000680000007800007a
:1052740000680000089a000000680000d3ac000039
:1052840075b5000096b5000096b5000096b500000f
:1052940096b5000096b5000096b5000075b50000ff
:1052a40038be000034c50000a6910000c380000091
:1052b400f3cc0000ffff0000ffff000008a2000085
:1052c4000cb300009ef70000ffff0000ffff00008a
:1052d400ffff0000ffff0000ffff0000ffff0000d2
:1052e400ffff0000ffff0000ffff0000ffff0000c2
:1052f400ffff0000ffff0000ffff0000ffff0000b2
:10530400ffff0000ffff0000ffff0000ffff0000a1
:10531400ffff0000ffff0000ffff0000ffff000091
:10532400ffff0000ffff0000ffff0000ffff000081
:10533400ffff000061780000006800008691000013
:10534400fbce000075ad000038b60000babe000008
:1053540099be000017b6000075ad000055ad000001
:10536400bad60000ffff0000ffff000079e600004e
:1053740045890000006000000078000055d5000059
:10538400ffff0000ffff0000ffff0000ffff000021
:10539400ffff0000ffff0000ffff000075d50000c5
:1053a400ffff0000ffff0000ffff0000ffff000001
:1053b400ffff0000ffff0000ffff0000ffff0000f1
:1053c400ffff000038e600002080000051c4000008
:1053d400ffff0000ffff0000fbee0000b2c400006e
:1053e400fbee0000f7dd00008aa20000b6dd00003d
:1053f40055cd0000a2880000d3c400002080000026
:1054040071bc0000ffff0000efa30000208000003b
:10541400f3ac0000d7b5000096b5000096b50000c7
:1054240096b5000096b5000096b5000075b500006d
:10543400f7bd0000f3bc0000a6910000a2800000ac
:10544400f3cc0000ffff0000ffff00008681000096
:10545400b2c40000ffff0000ffff0000ffff0000d8
:10546400ffff0000ffff0000ffff0000ffff000040
